:100000000C9446000C9465000C9465000C946500FB
:100010000C9465000C9465000C9465000C946500CC
:100020000C9465000C9465000C9465000C946500BC
:100030000C9465000C9465000C9465000C946500AC
:100040000C9465000C9465000C9465000C9465009C
:100050000C9465000C9465000C9465000C9465008C
:100060000C9465000C9465000C9465000C9465007C
:100070000C9465000C9465000C9465000C9465006C
:100080000C9465000C9465000C94650011241FBE4F
:10009000CFEFD0E1DEBFCDBF11E0A0E0B1E0ECEAF0
:1000A000F4E000E00BBF02C007900D92AC31B10745
:1000B000D9F711E0ACE1B1E001C01D92A232B10765
:1000C000E1F70E948C010C9454020C94000095E31B
:1000D000292F2A95F1F7292F2A95F1F7292F2A950B
:1000E000F1F7292F2A95F1F79A95F1F7982F907F3C
:1000F000956095BB9B7F95BB8295807F856085BB16
:100100008B7F85BB0895CF93DF93EC0103C00E94E2
:100110006700219688818823D1F7DF91CF910895D8
:10012000982F907F946095BB9B7F95BB8295807F35
:10013000846085BB8B7F85BB85E08A95F1F7089548
:100140001F93182F85E3982F9A95F1F7982F9A957A
:10015000F1F7982F9A95F1F7982F9A95F1F78A95DC
:10016000F1F7812F0E9490001150123020F480E4AA
:100170009FE10197F1F71F9108950F931F93CF937C
:10018000DF938B01880F880F880F80640E94A00086
:10019000C0E0D0E0F801EC0FFD1F80810E946700F5
:1001A0002196C830D105B1F7DF91CF911F910F9102
:1001B0000895882349F0813011F4605C05C08230D5
:1001C00011F4605F01C0605B862F80680E94A00010
:1001D00008958FEF84BB80E69AEE0197F1F780E3F4
:1001E0000E94900080E29EE40197F1F780E30E9474
:1001F000900080EA9FE00197F1F782E30E9490006F
:1002000088E20E94A00088E00E94A00081E00E9495
:10021000A00086E00E94A0008CE00E94A00008954B
:100220000F931F93CF93DF939C018B0110921C01BE
:1002300010921D0110921E0110921F0110922001B8
:10024000C0E0D0E0C901B8010E942D02FE01E45EC9
:10025000FE4F80832196C901B8010E942D029B01A7
:100260006115710579F7DF91CF911F910F91089575
:100270008A3010F4805D0895895C089520EA3FE09B
:1002800004C0F9013197F1F7019718161906CCF35C
:1002900008951F93162F6AE070E00E941001112349
:1002A00081F1163010F015E002C0153049F480914C
:1002B00020018A3010F4805D01C0895C0E946700D3
:1002C000143048F080911F018A3010F4805D01C025
:1002D000895C0E946700133048F080911E018A30CB
:1002E00010F4805D01C0895C0E946700113049F004
:1002F00080911D018A3010F4805D01C0895C0E94EC
:10030000670080911C018A3010F4805D01C0895C17
:100310000E9467001F910895FF920F931F93CF9340
:10032000DF93BF9A0E94E90080E060E00E94D9005C
:1003300080E091E00E94830081E060E00E94D900AB
:100340008FE091E00E94830080ED97E020EA3FE09B
:10035000F9013197F1F70197D9F785B5886685BD21
:1003600085B5856085BD8AE5809321019091210145
:1003700087E8989FC001112464E873E00E9441025D
:10038000665F63BD81E06CE00E94D900809121012D
:1003900090E063E00E94490117E8C0EADFE08AE5E7
:1003A000F82E04EB1092210180912101819FC00160
:1003B000112464E873E00E944102665F63BD81E03E
:1003C0006CE00E94D9008091210190E063E00E94DE
:1003D000490188E893E1FE013197F1F70197D9F7D8
:1003E000F092210180912101819FC001112464E8D4
:1003F00073E00E944102665F63BD81E06CE00E9491
:10040000D9008091210190E063E00E94490188E8D1
:1004100093E1FE013197F1F70197D9F7009321019C
:1004200080912101819FC001112464E873E00E9442
:100430004102665F63BD81E06CE00E94D90080915B
:10044000210190E063E00E94490188E893E1FE0108
:100450003197F1F70197D9F7A5CFAA1BBB1B51E143
:1004600007C0AA1FBB1FA617B70710F0A61BB70B24
:10047000881F991F5A95A9F780959095BC01CD01C9
:10048000089597FB092E07260AD077FD04D0E5DFF3
:1004900006D000201AF4709561957F4F0895F6F705
:0C04A000909581959F4F0895F894FFCF30
:1004AC00524320536572766F204D6F746F720053F8
:0C04BC006572766F5F506F73203D20006A
:00000001FF
