:100000000C9446000C9465000C9465000C946500FB
:100010000C9465000C9401020C9471020C94650020
:100020000C9465000C9465000C9465000C946500BC
:100030000C9465000C9465000C9465000C946500AC
:100040000C9410010C9465000C9465000C946500F0
:100050000C9465000C9465000C9465000C9465008C
:100060000C9465000C9465000C9465000C9465007C
:100070000C9465000C9465000C9465000C9465006C
:100080000C9465000C9465000C94650011241FBE4F
:10009000CFEFD0E1DEBFCDBF11E0A0E0B1E0EEE9EF
:1000A000F7E000E00BBF02C007900D92AE31B10740
:1000B000D9F711E0AEE1B1E001C01D92AA34B10759
:1000C000E1F70E945A030C94CD030C94000095E3D1
:1000D000292F2A95F1F7292F2A95F1F7292F2A950B
:1000E000F1F7292F2A95F1F79A95F1F7982F907F3C
:1000F000956095BB9B7F95BB8295807F856085BB16
:100100008B7F85BB0895CF93DF93EC0103C00E94E2
:100110006700219688818823D1F7DF91CF910895D8
:10012000982F907F946095BB9B7F95BB8295807F35
:10013000846085BB8B7F85BB85E08A95F1F7089548
:100140001F93182F85E3982F9A95F1F7982F9A957A
:10015000F1F7982F9A95F1F7982F9A95F1F78A95DC
:10016000F1F7812F0E9490001150123020F480E4AA
:100170009FE10197F1F71F9108950F931F93CF937C
:10018000DF938B01880F880F880F80640E94A00086
:10019000C0E0D0E0F801EC0FFD1F80810E946700F5
:1001A0002196C830D105B1F7DF91CF911F910F9102
:1001B0000895882349F0813011F4605C05C08230D5
:1001C00011F4605F01C0605B862F80680E94A00010
:1001D00008958FEF84BB80E69AEE0197F1F780E3F4
:1001E0000E94900080E29EE40197F1F780E30E9474
:1001F000900080EA9FE00197F1F782E30E9490006F
:1002000088E20E94A00088E00E94A00081E00E9495
:10021000A00086E00E94A0008CE00E94A00008954B
:100220001F920F920FB60F9211242F933F935F935B
:100230006F937F938F939F93AF93BF9384E682BF17
:1002400080914801909149010196909349018093D2
:100250004801059709F0C7C0109249011092480162
:1002600080913F01909140010196909340018093CD
:100270003F0180913F0190914001039731F481E06B
:1002800090E09093400180933F0180913F019091D5
:100290004001019769F4C09A84E190E035E0232F92
:1002A0002A95F1F70197D9F7C09881E090E012C044
:1002B00080913F0190914001029781F4C19A84E1BD
:1002C00090E035E0232F2A95F1F70197D9F7C198EF
:1002D00082E090E090932601809325018091330184
:1002E00090913401899730F08091270190912801F5
:1002F000899720F481E08093410102C0109241016E
:1003000080913301909134016AE070E00E94B9035A
:100310006F5F7F4F7093430160934201809127018B
:10032000909128016AE070E00E94B9036F5F7F4FEF
:100330007093450160934401209142013091430143
:1003400080914401909145012817390728F0809148
:1003500044019091450104C0809142019091430174
:100360009093470180934601809146019091470107
:10037000029730F481E090E090934701809346012A
:100380008091460190914701049730F084E090E01D
:100390009093470180934601809141018130E9F4B7
:1003A000209146013091470180911E0190911F01DB
:1003B000019690931F0180931E018217930798F076
:1003C00010921F0110921E0188B390E1892788BB0B
:1003D00088B390E2892788BB06C0809141018823B9
:1003E00011F4C498C59ABF91AF919F918F917F915D
:1003F0006F915F913F912F910F900FBE0F901F90C3
:1004000018951F920F920FB60F9211242F933F93BE
:100410005F936F937F938F939F93AF93BF9320913D
:100420002501309126012130310509F04CC0809121
:10043000370190913801892B69F48091880090915F
:10044000890090933E0180933D01309338012093C1
:10045000370139C0809188009091890090933C01C8
:1004600080933B0120913D0130913E01821B930B13
:1004700090933A018093390164E770E00E94B903D8
:100480007093340160933301809133019091340172
:100490008D57914040F080913501909136019093B5
:1004A0003401809333018091330190913401909312
:1004B0003601809335011092380110923701109265
:1004C000260110922501BF91AF919F918F917F914D
:1004D0006F915F913F912F910F900FBE0F901F90E2
:1004E00018951F920F920FB60F9211242F933F93DE
:1004F0005F936F937F938F939F93AF93BF938091FD
:10050000250190912601029709F04EC080912B01A0
:1005100090912C01892B79F4809188009091890029
:10052000909332018093310181E090E090932C010F
:1005300080932B0139C0809188009091890090931D
:10054000300180932F012091310130913201821BC3
:10055000930B90932E0180932D0164E770E00E942D
:10056000B90370932801609327018091270190912E
:1005700028018D57914040F08091290190912A01E6
:100580009093280180932701809127019091280161
:1005900090932A018093290110922C0110922B0133
:1005A0001092260110922501BF91AF919F918F91DA
:1005B0007F916F915F913F912F910F900FBE0F90A0
:1005C0001F9018950F931F93CF93DF939C018B017E
:1005D0001092200110922101109222011092230109
:1005E00010922401C0E0D0E0C901B8010E94B90313
:1005F000FE01E05EFE4F80832196C901B8010E9492
:10060000B9039B016115710579F7DF91CF911F91B6
:100610000F9108958A3010F4805D0895895C0895E3
:1006200020EA3FE004C0F9013197F1F7019718166D
:100630001906CCF3089535E004C0232F2A95F1F76D
:10064000019718161906CCF3089520911E013091D8
:100650001F012F5F3F4F30931F0120931E0128176A
:10066000390710F480E0089510921F0110921E01C6
:1006700081E008956AE070E00E94E2028091220128
:100680008A3010F4805D01C0895C0E94670080910F
:1006900021018A3010F4805D01C0895C0E946700EE
:1006A000809120018A3010F4805D01C0895C0E9435
:1006B000670008950E94E90080E060E00E94D90090
:1006C00080E091E00E94830081E060E00E94D90018
:1006D0008FE091E00E94830087B3876087BB88B377
:1006E000887F88BBBC9AC498BD9AC59A13BE84E61D
:1006F00082BF81E087BF10928B0082E080938A00E6
:1007000082B18F7882B98AB785618ABF8AB7857DC1
:100710008ABF89B7806789BF7894C09A84E190E0E6
:1007200035E0232F2A95F1F70197D9F7C09881E09A
:1007300090E090932601809325019093400180934F
:100740003F0183B7876083BF80E069E00E94D900E2
:1007500080913301909134010E943A0381E069E075
:100760000E94D90080912701909128010E943A03AC
:10077000EBCFAA1BBB1B51E107C0AA1FBB1FA617CB
:10078000B70710F0A61BB70B881F991F5A95A9F73A
:0E07900080959095BC01CD010895F894FFCF9F
:10079E00446973745F31203D20202020636D004436
:0E07AE006973745F32203D20202020636D00AF
:00000001FF
