:100000000C9446000C9465000C9465000C946500FB
:100010000C9465000C9465000C9465000C946500CC
:100020000C9465000C9465000C9465000C946500BC
:100030000C9465000C9465000C9465000C946500AC
:100040000C9465000C9465000C9467000C9465009A
:100050000C9465000C9465000C9465000C9465008C
:100060000C9465000C9465000C9465000C9465007C
:100070000C9465000C9465000C9465000C9465006C
:100080000C9465000C9465000C94650011241FBE4F
:10009000CFEFD0E1DEBFCDBF11E0A0E0B1E0E2E400
:1000A000F6E000E00BBF02C007900D92AE3AB10738
:1000B000D9F711E0AEEAB1E001C01D92AC3CB10746
:1000C000E1F70E943E010C941F030C9400001F9264
:1000D0000F920FB60F920BB60F9211248F939F932E
:1000E000EF93FF938CB18093B3018091B3018E3273
:1000F000A1F08091B3015D9BFECF8CB98091CA01C4
:10010000E82FF0E09091B301EC54FE4F90838F5FA5
:100110008093CA011092C80111C08091B3018E3240
:1001200069F45D9BFECF8AE08CB98091CA0180930F
:10013000C9011092CA0181E08093C801FF91EF913B
:100140009F918F910F900BBE0F900FBE0F901F903D
:1001500018951BB888E18AB986E0809395001092C3
:10016000900087E689B908955D9BFECF8CB908950C
:10017000FC0104C05D9BFECF31968CB98081882341
:10018000C9F708950F931F93CF93DF939C018B01C1
:100190001092AE011092AF011092B0011092B10115
:1001A0001092B201C0E0D0E0C901B8010E940B0377
:1001B000FE01E255FE4F80832196C901B8010E94DD
:1001C0000B039B016115710579F7DF91CF911F91A9
:1001D0000F9108958A3010F0895C0895805D08952C
:1001E00020EA3FE004C0F9013197F1F701971816B2
:1001F0001906CCF308951F93162F6AE070E00E9451
:10020000C200112381F1163010F015E002C0153044
:1002100049F48091B2018A3010F0895C01C0805DA0
:100220000E946802143048F08091B1018A3010F0C9
:10023000895C01C0805D0E946802133048F08091A3
:10024000B0018A3010F0895C01C0805D0E946802B4
:10025000113049F08091AF018A3010F0895C01C003
:10026000805D0E9468028091AE018A3010F0895C46
:1002700001C0805D0E9468021F910895FF920F9354
:100280001F93BC9ABE9AC49AC6981BB888E18AB9D3
:1002900086E0809395001092900087E689B90E94CD
:1002A000C802579A789481E00E94A10280E060E041
:1002B0000E94BE0280E091E00E94840281E060E042
:1002C0000E94BE028FE091E00E9484020AE080E179
:1002D000F82E8091C801813009F0C5C08091CB0112
:1002E0008130A1F41092CB010E94A10280E060E075
:1002F0000E94BE0280E091E00E94840281E060E002
:100300000E94BE028DE191E00E94840230E040E054
:1003100050E060E070E010E020E044C0A22FB0E0C8
:10032000FD01EC54FE4F9081FD01EC58FE4F8081A1
:10033000981709F43F5FFD01EC54FE4F9081FD01D9
:10034000E558FE4F8081981709F44F5FFD01EC548A
:10035000FE4F9081FD01ED57FE4F8081981709F403
:100360005F5FFD01EC54FE4F9081FD01E257FE4FAF
:100370008081981709F46F5FFD01EC54FE4F908166
:10038000FD01E856FE4F8081981709F47F5FFD015B
:10039000EC54FE4F9081AE55BE4F8C91981709F4E6
:1003A0001F5F2F5F8091C901281708F4B7CF36303F
:1003B00011F411E015C0473011F412E011C05A30A9
:1003C00011F413E00DC0693011F414E009C0793064
:1003D00011F415E005C01A3011F01EEF01C016E04F
:1003E0001092C801113011F4C4985FC0123011F49A
:1003F000C49A5BC0133021F488B38F2588BB55C0E5
:10040000143069F58091C90190E06AE070E00E94C3
:10041000C20089E291E00E94B8008091B0018A3068
:1004200010F0895C01C0805D5D9BFECF8CB980912E
:10043000AF018A3010F0895C01C0805D5D9BFECF0A
:100440008CB98091AE018A3010F0895C01C0805D6A
:100450005D9BFECF8CB95D9BFECF0CB926C01530DD
:1004600021F4C69A22C01FEF20C0163011F4C6989E
:100470001CC01E3FD1F480E491E00E94B80081E0EE
:100480000E94A10280E060E00E94BE028DE591E042
:100490000E94840281E060E00E94BE0289E691E051
:1004A0000E94840281E08093CB018091CB0188235C
:1004B00009F00FCF1F3F09F40CCF81E06BE00E94E1
:1004C000BE028091C90190E063E00E94FB0001CF71
:1004D00095E3292F2A95F1F7292F2A95F1F7292F4E
:1004E0002A95F1F7292F2A95F1F79A95F1F7982F88
:1004F000907F956095BB9B7F95BB8295807F856043
:1005000085BB8B7F85BB0895CF93DF93EC0103C040
:100510000E946802219688818823D1F7DF91CF91CC
:100520000895982F907F946095BB9B7F95BB829593
:10053000807F846085BB8B7F85BB85E08A95F1F7E2
:1005400008951F93182F85E3982F9A95F1F7982F08
:100550009A95F1F7982F9A95F1F7982F9A95F1F7C8
:100560008A95F1F7812F0E9491021150123020F4E8
:1005700080E49FE10197F1F71F9108958295880F1C
:10058000880F807C680F862F80680E94A1020895E2
:100590008FEF84BB80E69AEE0197F1F780E30E942B
:1005A000910280E29EE40197F1F780E30E949102BC
:1005B00080EA9FE00197F1F782E30E94910288E2CE
:1005C0000E94A10288E00E94A10281E00E94A10293
:1005D00086E00E94A1028CE00E94A10208950F9380
:1005E0001F93CF93DF938B01880F880F880F806450
:1005F0000E94A102C0E0D0E0F801EC0FFD1F808155
:100600000E9468022196C830D105B1F7DF91CF91E1
:100610001F910F910895AA1BBB1B51E107C0AA1F90
:10062000BB1FA617B70710F0A61BB70B881F991F93
:100630005A95A9F780959095BC01CD010895F8943D
:02064000FFCFEA
:10064200426C7565746F6F74682050726F670053E7
:10065200656E6420436F6D6D616E642E005265633A
:100662007620636E74203D2000526563656976656D
:1006720064204461746120436F756E74203D2000D4
:10068200436F6D6D616E64204572726F722121201D
:100692002054727920616761696E2E0A00436D648D
:1006A200204572726F722121005472792041676174
:1006B200696E2E006C6564206F6E006C6564206F3D
:1006C2006666006C656420746F67676C65007365AD
:1006D2006E6420646174610062757A7A6572206F5B
:0E06E2006E0062757A7A6572206F666600009F
:00000001FF
