:100000000C9446000C9465000C9465000C946500FB
:100010000C9465000C9465000C9465000C946500CC
:100020000C9465000C9465000C9465000C946500BC
:100030000C9465000C9465000C9465000C946500AC
:100040000C9465000C9465000C9467000C9465009A
:100050000C9465000C9465000C9465000C9465008C
:100060000C9465000C9465000C9465000C9465007C
:100070000C9465000C9465000C9465000C9465006C
:100080000C9465000C9465000C94650011241FBE4F
:10009000CFEFD0E1DEBFCDBF11E0A0E0B1E0E0E303
:1000A000F5E000E00BBF02C007900D92A238B10747
:1000B000D9F711E0A2E8B1E001C01D92AB38B10759
:1000C000E1F70E941C010C9496020C9400001F9210
:1000D0000F920FB60F9211248F938CB180938701EA
:1000E000809187015D9BFECF8CB95D9BFECF8AE03E
:1000F0008CB9809188018F5F8093880181E0809323
:1001000089018F910F900FBE0F901F9018951BB80B
:1001100088E18AB986E0809395001092900087E686
:1001200089B908955D9BFECF8CB90895FC0104C088
:100130005D9BFECF31968CB980818823C9F70895E5
:100140000F931F93CF93DF939C018B011092820139
:100150001092830110928401109285011092860101
:10016000C0E0D0E0C901B8010E948202FE01EE5752
:10017000FE4F80832196C901B8010E9482029B0133
:100180006115710579F7DF91CF911F910F91089556
:100190008A3010F0895C0895805D089520EA3FE080
:1001A00004C0F9013197F1F7019718161906CCF33D
:1001B00008951F93162F6AE070E00E94A00011239B
:1001C00081F1163010F015E002C0153049F480912D
:1001D00086018A3010F0895C01C0805D0E94DF01D9
:1001E000143048F0809185018A3010F0895C01C09C
:1001F000805D0E94DF01133048F0809184018A30D5
:1002000010F0895C01C0805D0E94DF01113049F06F
:10021000809183018A3010F0895C01C0805D0E946A
:10022000DF01809182018A3010F0895C01C0805D1D
:100230000E94DF011F9108950F931F93BC9AC49AE7
:100240001BB888E18AB986E08093950010929000EF
:1002500087E689B90E943F02579A789481E00E940C
:10026000180280E060E00E94350280E091E00E9488
:10027000FB0181E060E00E9435028FE091E00E9486
:10028000FB010FEF1AE0809189018130E1F7809145
:100290008A01813011F410928A0181E00E941802D3
:1002A00080E060E00E9435028DE191E00E94FB0158
:1002B0008091880190E063E00E94D90081E060E0D5
:1002C0000E94350289E291E00E94FB018091870142
:1002D0000E94DF0180918701803311F4C49A55C0D8
:1002E00080918701813311F4C4984FC080918701B8
:1002F000823369F58091880190E06AE070E00E94A5
:10030000A00086E391E00E949600809184018A30EB
:1003100010F0895C01C0805D5D9BFECF8CB980913F
:1003200083018A3010F0895C01C0805D5D9BFECF47
:100330008CB9809182018A3010F0895C01C0805DA7
:100340005D9BFECF8CB95D9BFECF1CB91EC080911A
:1003500087018F3FD1F08DE491E00E94960081E00B
:100360000E94180280E060E00E9435028AE691E077
:100370000E94FB0181E060E00E94350286E791E087
:100380000E94FB0181E080938A0180918A01882389
:1003900089F46BE00E9435028091880190E063E06F
:1003A0000E94D90081E06CE00E94350280918701B3
:1003B0000E94DF01009387011092890164CF95E3C9
:1003C000292F2A95F1F7292F2A95F1F7292F2A9518
:1003D000F1F7292F2A95F1F79A95F1F7982F907F49
:1003E000956095BB9B7F95BB8295807F856085BB23
:1003F0008B7F85BB0895CF93DF93EC0103C00E94F0
:10040000DF01219688818823D1F7DF91CF9108956C
:10041000982F907F946095BB9B7F95BB8295807F42
:10042000846085BB8B7F85BB85E08A95F1F7089555
:100430001F93182F85E3982F9A95F1F7982F9A9587
:10044000F1F7982F9A95F1F7982F9A95F1F78A95E9
:10045000F1F7812F0E9408021150123020F480E43D
:100460009FE10197F1F71F9108958295880F880FFA
:10047000807C680F862F80680E94180208958FEF95
:1004800084BB80E69AEE0197F1F780E30E940802B0
:1004900080E29EE40197F1F780E30E94080280EA7F
:1004A0009FE00197F1F782E30E94080288E20E9430
:1004B000180288E00E94180281E00E94180286E07B
:1004C0000E9418028CE00E94180208950F931F9357
:1004D000CF93DF938B01880F880F880F80640E9471
:1004E0001802C0E0D0E0F801EC0FFD1F80810E94EF
:1004F000DF012196C830D105B1F7DF91CF911F916F
:100500000F910895AA1BBB1B51E107C0AA1FBB1F77
:10051000A617B70710F0A61BB70B881F991F5A958F
:10052000A9F780959095BC01CD010895F894FFCF6F
:10053000426C7565746F6F74682050726F670053FA
:10054000656E6420436F6D6D616E642E005265634D
:100550007620636E74203D200052656376206461CE
:100560007461203D200052656365697665642044AE
:1005700061746120436F756E74203D2000436F6D80
:100580006D616E64204572726F7221212020547259
:100590007920616761696E2E0A00436D642045729F
:1005A000726F7221210054727920416761696E2E49
:0205B000000049
:00000001FF
