:100000000C9446000C9465000C9465000C946500FB
:100010000C9465000C9465000C9465000C946500CC
:100020000C9465000C9465000C9465000C946500BC
:100030000C9465000C9465000C9465000C946500AC
:100040000C9465000C9465000C9410010C946500F0
:100050000C9465000C9465000C9465000C9465008C
:100060000C9465000C9465000C9465000C9465007C
:100070000C9465000C9465000C9465000C9465006C
:100080000C9465000C9465000C94650011241FBE4F
:10009000CFEFD0E1DEBFCDBF11E0A0E0B1E0E8E9F5
:1000A000F6E000E00BBF02C007900D92A037B10749
:1000B000D9F711E0A0E7B1E001C01D92AE37B1075A
:1000C000E1F70E94D6010C944A030C94000095E3DA
:1000D000292F2A95F1F7292F2A95F1F7292F2A950B
:1000E000F1F7292F2A95F1F79A95F1F7982F907F3C
:1000F000956095BB9B7F95BB8295807F856085BB16
:100100008B7F85BB0895CF93DF93EC0103C00E94E2
:100110006700219688818823D1F7DF91CF910895D8
:10012000982F907F946095BB9B7F95BB8295807F35
:10013000846085BB8B7F85BB85E08A95F1F7089548
:100140001F93182F85E3982F9A95F1F7982F9A957A
:10015000F1F7982F9A95F1F7982F9A95F1F78A95DC
:10016000F1F7812F0E9490001150123020F480E4AA
:100170009FE10197F1F71F9108950F931F93CF937C
:10018000DF938B01880F880F880F80640E94A00086
:10019000C0E0D0E0F801EC0FFD1F80810E946700F5
:1001A0002196C830D105B1F7DF91CF911F910F9102
:1001B0000895882349F0813011F4605C05C08230D5
:1001C00011F4605F01C0605B862F80680E94A00010
:1001D00008958FEF84BB80E69AEE0197F1F780E3F4
:1001E0000E94900080E29EE40197F1F780E30E9474
:1001F000900080EA9FE00197F1F782E30E9490006F
:1002000088E20E94A00088E00E94A00081E00E9495
:10021000A00086E00E94A0008CE00E94A00008954B
:100220001F920F920FB60F9211248F938CB180936F
:100230007501809175015D9BFECF8CB95D9BFECFF2
:100240008AE08CB9809176018F5F8093760181E09E
:10025000809377018F910F900FBE0F901F9018958C
:100260001BB888E18AB986E08093950010929000CF
:1002700087E689B908955D9BFECF8CB90895FC018E
:1002800004C05D9BFECF31968CB980818823C9F76D
:10029000089527E830E0AC01429FC001439F900DD4
:1002A000529F900D112464E873E00E943703665F4B
:1002B00063BD08950F931F93CF93DF939C018B0130
:1002C00010927001109271011092720110927301DC
:1002D00010927401C0E0D0E0C901B8010E9423036C
:1002E000FE01E059FE4F80832196C901B8010E94AA
:1002F00023039B016115710579F7DF91CF911F9160
:100300000F9108958A3010F4805D0895895C0895F6
:1003100020EA3FE004C0F9013197F1F70197181680
:100320001906CCF308951F93162F6AE070E00E941F
:100330005A01112381F1163010F015E002C015307A
:1003400049F4809174018A3010F4805D01C0895CA9
:100350000E946700143048F0809173018A3010F4D5
:10036000805D01C0895C0E946700133048F0809175
:1003700072018A3010F4805D01C0895C0E946700C0
:10038000113049F0809171018A3010F4805D01C014
:10039000895C0E946700809170018A3010F4805D52
:1003A00001C0895C0E9467001F9108950F931F93FD
:1003B000BF9ABB9AC398BC9AC49A1BB888E18AB901
:1003C00086E0809395001092900087E689B9579A4D
:1003D00078940E94E90080E060E00E94D90080E00B
:1003E00091E00E94830081E060E00E94D9008FE0EC
:1003F00091E00E94830080ED97E020EA3FE0F90160
:100400003197F1F70197D9F785B5886685BD85B530
:10041000856085BD80916C0190916D01909379010B
:100420008093780180917801909179010E9449012F
:1004300081E06CE00E94D90080917801909179016F
:1004400063E00E9493010FEF1AE080917701813001
:10045000E1F780917A018130A1F410927A010E9433
:10046000A00080E060E00E94D90080E091E00E945E
:10047000830081E060E00E94D9008FE091E00E945B
:10048000830080917501803311F4C49AC7C08091B4
:100490007501813311F4C498C1C080917501823314
:1004A000C9F480917801909179010A96909379012D
:1004B00080937801209178013091790180916E01CB
:1004C00090916F01281739072CF180916E0190915E
:1004D0006F011CC080917501833339F580917801DB
:1004E000909179010A9790937901809378012091F6
:1004F00078013091790180917C0190917D012817DC
:10050000390744F480917C0190917D0190937901A9
:100510008093780180917801909179010E9449013E
:100520008091750180937B0179C08091750184333E
:1005300029F480916E0190916F0108C0809175013E
:10054000853379F480916C0190916D0190937901DC
:100550008093780180917801909179010E944901FE
:100560005DC080917501863329F480917C01909162
:100570007D01ECCF80917501873391F580917801F1
:10058000909179016AE070E00E945A018CE191E05B
:100590000E943F01809172018A3010F4805D01C099
:1005A000895C5D9BFECF8CB9809171018A3010F41B
:1005B000805D01C0895C5D9BFECF8CB9809170012C
:1005C0008A3010F4805D01C0895C5D9BFECF8CB9E0
:1005D00084E391E00E943F015D9BFECF1CB91EC0E9
:1005E000809175018F3FD1F088E391E00E943F0137
:1005F00081E00E94A00080E060E00E94D90085E5D3
:1006000091E00E94830081E060E00E94D90081E6D1
:1006100091E00E94830081E080937A01009375014C
:100620001092770180917A01882309F00ECF81E042
:100630006CE00E94D900809178019091790163E08B
:100640000E94930102CFAA1BBB1B51E107C0AA1F46
:10065000BB1FA617B70710F0A61BB70B881F991F63
:100660005A95A9F780959095BC01CD01089597FB07
:10067000092E07260AD077FD04D0E5DF06D000203A
:100680001AF4709561957F4F0895F6F790958195CE
:080690009F4F0895F894FFCF7D
:10069800524320536572766F204D6F746F7200530A
:1006A8006572766F5F506F73203D200053657276D8
:1006B8006F204D6F726F7220506F736974696F6E1F
:1006C800203D200064656700436F6D6D616E642096
:1006D8004572726F722121202054727920616761FE
:1006E800696E2E0A00436D64204572726F72212173
:1006F8000054727920416761696E2E005A00B40077
:00000001FF
