:100000000C9446000C9465000C9465000C946500FB
:100010000C9465000C947E020C94EE020C94650026
:100020000C9465000C9465000C9465000C946500BC
:100030000C9465000C9465000C9465000C946500AC
:100040000C9410010C9465000C9465000C946500F0
:100050000C9465000C9465000C9465000C9465008C
:100060000C9465000C9465000C9465000C9465007C
:100070000C9465000C9465000C9465000C9465006C
:100080000C9465000C9465000C94650011241FBE4F
:10009000CFEFD0E1DEBFCDBF11E0A0E0B1E0EAE9F3
:1000A000F8E000E00BBF02C007900D92AE31B1073F
:1000B000D9F711E0AEE1B1E001C01D92AF36B10752
:1000C000E1F70E94D6030C944B040C94000095E3D6
:1000D000292F2A95F1F7292F2A95F1F7292F2A950B
:1000E000F1F7292F2A95F1F79A95F1F7982F907F3C
:1000F000956095BB9B7F95BB8295807F856085BB16
:100100008B7F85BB0895CF93DF93EC0103C00E94E2
:100110006700219688818823D1F7DF91CF910895D8
:10012000982F907F946095BB9B7F95BB8295807F35
:10013000846085BB8B7F85BB85E08A95F1F7089548
:100140001F93182F85E3982F9A95F1F7982F9A957A
:10015000F1F7982F9A95F1F7982F9A95F1F78A95DC
:10016000F1F7812F0E9490001150123020F480E4AA
:100170009FE10197F1F71F9108950F931F93CF937C
:10018000DF938B01880F880F880F80640E94A00086
:10019000C0E0D0E0F801EC0FFD1F80810E946700F5
:1001A0002196C830D105B1F7DF91CF911F910F9102
:1001B0000895882349F0813011F4605C05C08230D5
:1001C00011F4605F01C0605B862F80680E94A00010
:1001D00008958FEF84BB80E69AEE0197F1F780E3F4
:1001E0000E94900080E29EE40197F1F780E30E9474
:1001F000900080EA9FE00197F1F782E30E9490006F
:1002000088E20E94A00088E00E94A00081E00E9495
:10021000A00086E00E94A0008CE00E94A00008954B
:100220001F920F920FB60F9211242F933F935F935B
:100230006F937F938F939F93AF93BF9384E682BF17
:1002400080916D0190916E01019690936E01809363
:100250006D01059709F044C110926E0110926D0175
:10026000809124019091250101969093250180931E
:1002700024018091240190912501039731F481E0BC
:1002800090E0909325018093240180912401909126
:100290002501019769F4C09A84E190E035E0232FAD
:1002A0002A95F1F70197D9F7C09881E090E012C044
:1002B0008091240190912501029781F4C19A84E1F3
:1002C00090E035E0232F2A95F1F70197D9F7C198EF
:1002D00082E090E0909327018093260180911E0197
:1002E00090911F01899720F481E080932E0102C034
:1002F00010922E018091200190912101899720F484
:1003000081E080932F0102C010922F0180911E0185
:1003100090911F016AE070E00E9437046F5F7F4F89
:1003200070933301609332018091200190912101FB
:100330006AE070E00E9437046F5F7F4F7093350171
:100340006093340120913201309133018091340166
:10035000909135012817390728F080913401909148
:10036000350104C0809132019091330190933101A5
:10037000809330018091300190913101029730F4E7
:1003800081E090E0909331018093300180913001C1
:1003900090913101049730F084E090E09093310126
:1003A000809330018091320190913301029730F4B3
:1003B00081E090E09093330180933201809132018B
:1003C00090913301049730F084E090E090933301F2
:1003D000809332018091340190913501029730F47D
:1003E00081E090E090933501809334018091340155
:1003F00090913501049730F084E090E090933501BE
:100400008093340180912E01813021F080912F0161
:100410008130C9F420913001309131018091440143
:100420009091450101969093450180934401821774
:10043000930790F0109245011092440188B390E127
:10044000892788BB09C080912E01882329F48091D7
:100450002F01882309F4C49880912E018130C9F4BA
:1004600020913201309133018091460190914701F2
:10047000019690934701809346018217930770F08D
:10048000109247011092460188B390E2892788BBF9
:1004900005C080912E01882309F4C59A80912F010F
:1004A0008130C9F4209134013091350180914801A7
:1004B00090914901019690934901809348018217D8
:1004C000930770F0109249011092480188B390E4AC
:1004D000892788BB05C080912F01882309F4C69A1B
:1004E000BF91AF919F918F917F916F915F913F915C
:1004F0002F910F900FBE0F901F9018951F920F9283
:100500000FB60F9211242F933F935F936F937F93B6
:100510008F939F93AF93BF93209126013091270132
:100520002130310509F04CC0809165019091660140
:10053000892B69F4809188009091890090936C01D7
:1005400080936B01309366012093650139C08091DF
:1005500088009091890090936A01809369012091AD
:100560006B0130916C01821B930B90936801809317
:10057000670164E770E00E94370470931F01609385
:100580001E0180911E0190911F018D57914040F0F6
:10059000809128019091290190931F0180931E0161
:1005A00080911E0190911F01909329018093280151
:1005B0001092660110926501109227011092260197
:1005C000BF91AF919F918F917F916F915F913F917B
:1005D0002F910F900FBE0F901F9018951F920F92A2
:1005E0000FB60F9211242F933F935F936F937F93D6
:1005F0008F939F93AF93BF93809126019091270192
:10060000029709F04EC080915D0190915E01892BA7
:1006100079F480918800909189009093640180938F
:10062000630181E090E090935E0180935D0139C0A9
:10063000809188009091890090936201809361017C
:100640002091630130916401821B930B90936001B0
:1006500080935F0164E770E00E943704709321018A
:100660006093200180912001909121018D5791404C
:1006700040F080912A0190912B0190932101809369
:100680002001809120019091210190932B01809372
:100690002A0110925E0110925D01109227011092C2
:1006A0002601BF91AF919F918F917F916F915F9143
:1006B0003F912F910F900FBE0F901F9018950F93A1
:1006C0001F93CF93DF939C018B01109258011092DE
:1006D000590110925A0110925B0110925C01C0E026
:1006E000D0E0C901B8010E943704FE01E85AFE4F6C
:1006F00080832196C901B8010E9437049B016115CE
:10070000710579F7DF91CF911F910F9108958A308C
:1007100010F4805D0895895C089520EA3FE004C0EC
:10072000F9013197F1F7019718161906CCF30895DE
:1007300035E004C0232F2A95F1F701971816190602
:10074000CCF30895E82FF0E0EE0FFF1FEC5BFE4FB7
:10075000808191810196918380838617970710F499
:1007600080E008951182108281E008956AE070E0CF
:100770000E945F0380915A018A3010F4805D01C0AD
:10078000895C0E946700809159018A3010F4805D75
:1007900001C0895C0E946700809158018A3010F482
:1007A000805D01C0895C0E94670008950E94E90095
:1007B00080E060E00E94D90080E091E00E94830028
:1007C00081E060E00E94D9008FE091E00E94830008
:1007D00087B3876087BB88B3887F88BBBC9AC4987F
:1007E000BD9AC59ABE9AC69A13BE84E682BF81E0BE
:1007F00087BF10928B0082E080938A0082B18F784D
:1008000082B98AB785618ABF8AB7857D8ABF89B771
:10081000806789BF7894C09A84E190E035E0232F07
:100820002A95F1F70197D9F7C09881E090E090936D
:10083000270180932601909325018093240183B79B
:10084000876083BF80E069E00E94D90080911E012B
:1008500090911F010E94B60381E069E00E94D900D7
:1008600080912001909121010E94B603EBCFAA1B39
:10087000BB1B51E107C0AA1FBB1FA617B70710F08B
:10088000A61BB70B881F991F5A95A9F780959095BD
:0A089000BC01CD010895F894FFCFDC
:10089A00446973745F31203D20202020636D004439
:0E08AA006973745F32203D20202020636D00B2
:00000001FF
