:100000000C9446000C9465000C9465000C946500FB
:100010000C9465000C9465000C9465000C946500CC
:100020000C9465000C9465000C9465000C946500BC
:100030000C9465000C9465000C9465000C946500AC
:100040000C943C010C9465000C9465000C946500C4
:100050000C9465000C9465000C9465000C9465008C
:100060000C9465000C9465000C9465000C9465007C
:100070000C9465000C9465000C9465000C9465006C
:100080000C9465000C9465000C94650011241FBE4F
:10009000CFEFD0E1DEBFCDBF11E0A0E0B1E0E2EEF6
:1000A000F5E000E00BBF02C007900D92A232B1074D
:1000B000D9F711E0A2E2B1E001C01D92AB33B10764
:1000C000E1F70E949A020C94EF020C94000095E371
:1000D000292F2A95F1F7292F2A95F1F7292F2A950B
:1000E000F1F7292F2A95F1F79A95F1F7982F907F3C
:1000F000956095BB9B7F95BB8295807F856085BB16
:100100008B7F85BB0895CF93DF93EC0103C00E94E2
:100110006700219688818823D1F7DF91CF910895D8
:10012000982F907F946095BB9B7F95BB8295807F35
:10013000846085BB8B7F85BB85E08A95F1F7089548
:100140001F93182F85E3982F9A95F1F7982F9A957A
:10015000F1F7982F9A95F1F7982F9A95F1F78A95DC
:10016000F1F7812F0E9490001150123020F480E4AA
:100170009FE10197F1F71F9108950F931F93CF937C
:10018000DF938B01880F880F880F80640E94A00086
:10019000C0E0D0E0F801EC0FFD1F80810E946700F5
:1001A0002196C830D105B1F7DF91CF911F910F9102
:1001B0000895882349F0813011F4605C05C08230D5
:1001C00011F4605F01C0605B862F80680E94A00010
:1001D00008958FEF84BB80E69AEE0197F1F780E3F4
:1001E0000E94900080E29EE40197F1F780E30E9474
:1001F000900080EA9FE00197F1F782E30E9490006F
:1002000088E20E94A00088E00E94A00081E00E9495
:10021000A00086E00E94A0008CE00E94A00008954B
:10022000982F87B1807E87B9913011F4389A1CC01D
:10023000923011F4399A18C0933019F487B1836061
:1002400012C0943011F43A9A0FC0953019F487B166
:10025000856009C0963019F487B1866004C0973074
:1002600019F487B1876087B9369A349BFECF349AE8
:1002700024B135B1C90108951F920F920FB60F92A4
:100280000BB60F9211242F933F934F935F936F936D
:100290007F938F939F93AF93BF93EF93FF9384E6E6
:1002A00082BF8091390190913A01019690933A0171
:1002B00080933901059709F0A6C010923A01109277
:1002C000390183E00E941001909328018093270157
:1002D000209137013091380140913501509136011C
:1002E00024303105C0F48091270190912801F90153
:1002F000EE0FFF1FE35DFE4F91838083480F591F70
:1003000050933601409335012F5F3F4F30933801B2
:100310002093370138C08091270190912801840FE4
:10032000951F20912D0130912E01821B930B9093EC
:10033000360180933501969587959695879590938C
:100340002A018093290180912F019091300190938F
:100350002E0180932D018091310190913201909373
:10036000300180932F01809133019091340190935B
:10037000320180933101809127019091280190935F
:100380003401809333018091290190912A018D528B
:10039000914048F488B3806788BB88B38F7888BB66
:1003A00083E090E00FC08091290190912A0181594A
:1003B000914068F488B3806788BB88B38F7C88BB22
:1003C00082E090E090932C0180932B011CC08091DF
:1003D000290190912A01855F914038F488B38067A4
:1003E00088BBC49881E090E0EDCF80912901909185
:1003F0002A01855F914038F088B3806788BB1092EE
:100400002C0110922B01FF91EF91BF91AF919F9121
:100410008F917F916F915F914F913F912F910F90AD
:100420000BBE0F900FBE0F901F9018950F931F9348
:10043000CF93DF939C018B01109222011092230134
:10044000109224011092250110922601C0E0D0E004
:10045000C901B8010E94DB02FE01EE5DFE4F808300
:100460002196C901B8010E94DB029B01611571054B
:1004700079F7DF91CF911F910F9108958A3010F491
:10048000805D0895895C089520EA3FE004C0F90189
:100490003197F1F701970097D1F7089535E004C03F
:1004A000232F2A95F1F701970097D1F708951F930D
:1004B000162F6AE070E00E941602112381F11630B7
:1004C00010F015E002C0153049F4809126018A3001
:1004D00010F4805D01C0895C0E946700143048F010
:1004E000809125018A3010F4805D01C0895C0E94F2
:1004F0006700133048F0809124018A3010F4805D49
:1005000001C0895C0E946700113049F0809123018D
:100510008A3010F4805D01C0895C0E946700809180
:1005200022018A3010F4805D01C0895C0E9467005E
:100530001F91089587B3806787BB88B3806788BBA6
:100540000E94E90081E00E94A00080E060E00E943B
:10055000D90080E091E00E94830081E060E00E9489
:10056000D90081E191E00E94830087B18F7187B942
:1005700086B1876886B913BE84E682BF81E087BFF3
:10058000789483B7876083BF80E06CE00E94D900D5
:10059000809127019091280164E00E94570281E038
:1005A0006CE00E94D90080912B0190912C0161E0B8
:1005B0000E945702E9CFAA1BBB1B51E107C0AA1F2B
:1005C000BB1FA617B70710F0A61BB70B881F991FF4
:1005D0005A95A9F780959095BC01CD010895F8949E
:0205E000FFCF4B
:1005E2004344532076616C7565203D2020202020F5
:1005F200004C454320636F756E74203D20202020FF
:020602002000D6
:00000001FF
