:100000000C9446000C9465000C9465000C946500FB
:100010000C9465000C94A2010C9465000C9465008E
:100020000C9465000C9465000C9465000C946500BC
:100030000C9465000C9465000C9465000C946500AC
:100040000C9410010C9465000C9465000C946500F0
:100050000C9465000C9465000C9465000C9465008C
:100060000C9465000C9465000C9465000C9465007C
:100070000C9465000C9465000C9465000C9465006C
:100080000C9465000C9465000C94650011241FBE4F
:10009000CFEFD0E1DEBFCDBF11E0A0E0B1E0EEE9EF
:1000A000F6E000E00BBF02C007900D92A432B1074A
:1000B000D9F711E0A4E2B1E001C01D92AA33B10763
:1000C000E1F70E94D8020C944D030C94000095E3D4
:1000D000292F2A95F1F7292F2A95F1F7292F2A950B
:1000E000F1F7292F2A95F1F79A95F1F7982F907F3C
:1000F000956095BB9B7F95BB8295807F856085BB16
:100100008B7F85BB0895CF93DF93EC0103C00E94E2
:100110006700219688818823D1F7DF91CF910895D8
:10012000982F907F946095BB9B7F95BB8295807F35
:10013000846085BB8B7F85BB85E08A95F1F7089548
:100140001F93182F85E3982F9A95F1F7982F9A957A
:10015000F1F7982F9A95F1F7982F9A95F1F78A95DC
:10016000F1F7812F0E9490001150123020F480E4AA
:100170009FE10197F1F71F9108950F931F93CF937C
:10018000DF938B01880F880F880F80640E94A00086
:10019000C0E0D0E0F801EC0FFD1F80810E946700F5
:1001A0002196C830D105B1F7DF91CF911F910F9102
:1001B0000895882349F0813011F4605C05C08230D5
:1001C00011F4605F01C0605B862F80680E94A00010
:1001D00008958FEF84BB80E69AEE0197F1F780E3F4
:1001E0000E94900080E29EE40197F1F780E30E9474
:1001F000900080EA9FE00197F1F782E30E9490006F
:1002000088E20E94A00088E00E94A00081E00E9495
:10021000A00086E00E94A0008CE00E94A00008954B
:100220001F920F920FB60F9211242F933F935F935B
:100230006F937F938F939F93AF93BF9384E682BF17
:100240008091380190913901019690933901809302
:100250003801059709F068C01092390110923801F1
:10026000C09A84E190E035E0232F2A95F1F70197B9
:10027000D9F7C09880912B0190912C018159914020
:1002800020F481E08093350102C010923501809105
:100290002B0190912C0164E670E00E9417036F5FC0
:1002A0007F4F7093370160933601809136019091B2
:1002B0003701029730F481E090E09093370180930A
:1002C00036018091360190913701049730F084E037
:1002D00090E0909337018093360180913501813011
:1002E000E9F42091360130913701809124019091F9
:1002F000250101969093250180932401821793078D
:1003000098F0109225011092240188B390E189277A
:1003100088BB88B390E2892788BB06C080913501ED
:10032000882311F4C498C59ABF91AF919F918F9182
:100330007F916F915F913F912F910F900FBE0F9022
:100340001F9018951F920F920FB60F920BB60F9237
:1003500011242F933F934F935F936F937F938F93CA
:100360009F93AF93BF93EF93FF9380912F01909151
:100370003001892B79F480918800909189009093C5
:1003800034018093330181E090E0909330018093B9
:100390002F0144C0209188003091890030933201B0
:1003A000209331018091330190913401281B390B46
:1003B0003695279540E050E0CA01B901E4E0660FA8
:1003C000771F881F991FEA95D1F7620F731F841F4B
:1003D000951F24E630E040E050E00E942B0330936C
:1003E0002C0120932B0180912B0190912C01895D90
:1003F0009E4040F080912D0190912E0190932C0110
:1004000080932B0180912B0190912C0190932E01D0
:1004100080932D011092300110922F01FF91EF91E6
:10042000BF91AF919F918F917F916F915F914F910C
:100430003F912F910F900BBE0F900FBE0F901F900A
:1004400018950F931F93CF93DF939C018B0110920C
:100450002601109227011092280110922901109272
:100460002A01C0E0D0E0C901B8010E941703FE01D3
:10047000EA5DFE4F80832196C901B8010E941703EF
:100480009B016115710579F7DF91CF911F910F9154
:1004900008958A3010F4805D0895895C089520EAFB
:1004A0003FE004C0F9013197F1F7019718161906DA
:1004B000CCF3089535E004C0232F2A95F1F7019776
:1004C00018161906CCF308952091240130912501C6
:1004D0002F5F3F4F309325012093240128173907C0
:1004E00010F480E00895109225011092240181E01B
:1004F00008956AE070E00E94210280912A018A300A
:1005000010F4805D01C0895C0E9467008091290120
:100510008A3010F4805D01C0895C0E946700809180
:1005200028018A3010F4805D01C0895C0E94670058
:10053000809127018A3010F4805D01C0895C0E949F
:100540006700809126018A3010F4805D01C0895CCB
:100550000E94670008956AE070E00E942102809185
:1005600029018A3010F4805D01C0895C0E94670017
:10057000809128018A3010F4805D01C0895C0E945E
:100580006700809127018A3010F4805D01C0895C8A
:100590000E94670080E091E00E9483008091260124
:1005A0008A3010F4805D01C0895C0E946700089564
:1005B0000E94E90080E060E00E94D90082E091E0C2
:1005C0000E94830081E060E00E94D90083E191E015
:1005D0000E948300B89AC098BC9AC498BD9AC59AE4
:1005E00013BE84E682BF91E097BF10928B0082E039
:1005F00080938A009ABF89B7806189BF7894C09A36
:1006000084E190E035E0232F2A95F1F70197D9F79F
:10061000C09883B7876083BF81E069E00E94D900FA
:1006200080912B0190912C010E94AB02F5CFAA1B67
:10063000BB1B51E107C0AA1FBB1FA617B70710F0CD
:10064000A61BB70B881F991F5A95A9F780959095FF
:10065000BC01CD010895A1E21A2EAA1BBB1BFD010E
:100660000DC0AA1FBB1FEE1FFF1FA217B307E40791
:10067000F50720F0A21BB30BE40BF50B661F771FE9
:10068000881F991F1A9469F76095709580959095C9
:0E0690009B01AC01BD01CF010895F894FFCF8E
:10069E002E00556C747261736F6E696353656E7361
:1006AE006F7200446973745F31203D20202020203A
:0406BE0020636D0048
:00000001FF
