:100000000C9446000C9465000C9465000C946500FB
:100010000C9465000C9465000C9465000C946500CC
:100020000C9465000C9465000C9465000C946500BC
:100030000C9465000C9465000C9465000C946500AC
:100040000C9465000C9465000C94A4010C9465005C
:100050000C9465000C9465000C9465000C9465008C
:100060000C9465000C9465000C9465000C9465007C
:100070000C9465000C9465000C9465000C9465006C
:100080000C9465000C9465000C94650011241FBE4F
:10009000CFEFD0E1DEBFCDBF11E0A0E0B1E0ECE5F5
:1000A000F7E000E00BBF02C007900D92A037B10748
:1000B000D9F711E0A0E7B1E001C01D92A039B10766
:1000C000E1F70E9474020C94AC030C94000095E3D9
:1000D000292F2A95F1F7292F2A95F1F7292F2A950B
:1000E000F1F7292F2A95F1F79A95F1F7982F907F3C
:1000F000956095BB9B7F95BB8295807F856085BB16
:100100008B7F85BB0895CF93DF93EC0103C00E94E2
:100110006700219688818823D1F7DF91CF910895D8
:10012000982F907F946095BB9B7F95BB8295807F35
:10013000846085BB8B7F85BB85E08A95F1F7089548
:100140001F93182F85E3982F9A95F1F7982F9A957A
:10015000F1F7982F9A95F1F7982F9A95F1F78A95DC
:10016000F1F7812F0E9490001150123020F480E4AA
:100170009FE10197F1F71F9108950F931F93CF937C
:10018000DF938B01880F880F880F80640E94A00086
:10019000C0E0D0E0F801EC0FFD1F80810E946700F5
:1001A0002196C830D105B1F7DF91CF911F910F9102
:1001B0000895882349F0813011F4605C05C08230D5
:1001C00011F4605F01C0605B862F80680E94A00010
:1001D00008958FEF84BB80E69AEE0197F1F780E3F4
:1001E0000E94900080E29EE40197F1F780E30E9474
:1001F000900080EA9FE00197F1F782E30E9490006F
:1002000088E20E94A00088E00E94A00081E00E9495
:10021000A00086E00E94A0008CE00E94A00008954B
:100220009C0180918D0190918E018217930724F497
:1002300020918D0130918E01D8983BBD2ABD089543
:100240009C0180918D0190918E018217930724F477
:1002500020918D0130918E01D89A80918D019091DD
:100260008E01821B930B9BBD8ABD0895D8981BBC41
:100270001ABC08959C0180918D0190918E01821786
:1002800093072CF420918D0130918E0112C0809142
:100290008D0190918E01909581959F4F2817390778
:1002A00044F480918D0190918E0122273327281BE1
:1002B000390B121613067CF480918D0190918E01FA
:1002C0008217930724F420918D0130918E01D898E4
:1002D0003BBD2ABD08952115310521F4D8981BBCDA
:1002E0001ABC089544275527421B530B80918D015A
:1002F00090918E018417950724F440918D015091BF
:100300008E01D89A80918D0190918E01841B950B5E
:100310009BBD8ABD08951BB888E18AB986E08093A9
:1003200095001092900087E689B908955D9BFECFF5
:100330008CB90895FC0104C05D9BFECF31968CB949
:1003400080818823C9F708951F920F920FB60F92EC
:100350000BB60F9211242F933F934F935F936F939C
:100360007F938F939F93AF93BF93EF93FF938CB142
:1003700080937501809175018E3279F080918C01A6
:10038000E82FF0E090917501EA58FE4F90838F5F5F
:1003900080938C0110928A0115C0809175018E3274
:1003A00089F480918C0180938B0110928C0181E003
:1003B00080938A0186E791E00E949A0180E091E0B3
:1003C0000E949A01FF91EF91BF91AF919F918F9100
:1003D0007F916F915F914F913F912F910F900BBE45
:1003E0000F900FBE0F901F9018950F931F93CF93F0
:1003F000DF939C018B011092700110927101109299
:1004000072011092730110927401C0E0D0E0C90132
:10041000B8010E949803FE01E059FE4F80832196A7
:10042000C901B8010E9498039B016115710579F714
:10043000DF91CF911F910F9108958A3010F4805D64
:100440000895895C0895805390E0089520EA3FE084
:1004500004C0F9013197F1F7019718161906CCF38A
:1004600008951F93162F6AE070E00E94F501112392
:1004700081F1163010F015E002C0153049F480917A
:1004800074018A3010F4805D01C0895C0E946700AD
:10049000143048F0809173018A3010F4805D01C0FF
:1004A000895C0E946700133048F0809172018A30A5
:1004B00010F4805D01C0895C0E946700113049F032
:1004C000809171018A3010F4805D01C0895C0E94C6
:1004D0006700809170018A3010F4805D01C0895CF2
:1004E0000E9467001F9108951F93CF93DF93BD9AD9
:1004F000D09A1BB888E18AB986E080939500109263
:10050000900087E689B9579A789482E88FBD8BE18D
:100510008EBD82E390E097BD86BD86B597B590937A
:100520008E0180938D011BBC1ABC0E94E90080E003
:1005300060E00E94D90082E091E00E94830081E0A7
:1005400060E00E94D90083E191E00E9483001AE0FC
:1005500080918A01813009F0E8C080918F0181305B
:1005600021F410928F010E94A00030E040E020E0D2
:1005700018C0A22FB0E0FD01EA58FE4F9081FD01A6
:10058000EF5AFE4F8081981709F43F5FFD01EA584A
:10059000FE4F9081AF59BE4F8C91981709F44F5F71
:1005A0002F5F80918B01281720F33F3011F481E0F9
:1005B00005C04D3011F08EEF01C082E010928A012B
:1005C000813009F07DC0809185018D3209F043C0F2
:1005D00080918601909187018053819FE0011124D1
:1005E0009053C90FD11D81E00E94A00080E060E01F
:1005F0000E94D90082E091E00E94830081E060E0E7
:100600000E94D90083E191E00E94830081E067E0CD
:100610000E94D9008BE191E00E94830081E068E0B4
:100620000E94D900CE0162E00E94310280918D01CA
:1006300090918E018C179D0724F4C0918D01D0916B
:100640008E01D89A80918D0190918E018C1B9D0B0B
:100650009BBD8ABD6AC080918501909186018053BF
:10066000819FE00111249053C90FD11D81E00E94A8
:10067000A00080E060E00E94D90082E091E00E944A
:10068000830081E060E00E94D90083E191E00E9454
:10069000830081E067E00E94D900CE0162E00E9401
:1006A000310280918D0190918E018C179D0724F469
:1006B000C0918D01D0918E01D898DBBDCABD35C0E7
:1006C0008230B9F481E00E94A00080E060E00E94E6
:1006D000D90082E091E00E94830081E060E00E9406
:1006E000D90083E191E00E948300D8981BBC1ABC1A
:1006F0001CC08E3FD1F48DE191E00E949A0181E00F
:100700000E94A00080E060E00E94D9008AE391E0AE
:100710000E94830081E060E00E94D90086E491E0BD
:100720000E94830081E080938F0180918F0110CF20
:10073000AA1BBB1B51E107C0AA1FBB1FA617B70707
:1007400010F0A61BB70B881F991F5A95A9F7809523
:0C0750009095BC01CD010895F894FFCFF6
:10075C000A004443204D6F746F7220436F6E7472A5
:10076C006F6C0044757479203D20002D00436F6D33
:10077C006D616E64204572726F722121202054725B
:10078C007920616761696E2E0A00436D64204572A1
:10079C00726F7221210054727920416761696E2E4B
:1007AC00006463206D6F746F722073706565643DB7
:1007BC00006463206D6F746F722073746F7000002F
:00000001FF
