:100000000C9446000C9465000C9465000C946500FB
:100010000C9465000C943B020C94AC020C941E03EF
:100020000C9465000C9465000C9465000C946500BC
:100030000C9465000C9465000C9465000C946500AC
:100040000C9467010C9465000C9465000C94650099
:100050000C9465000C9465000C9465000C9465008C
:100060000C9465000C9465000C9465000C9465007C
:100070000C9465000C9465000C940A010C946500C6
:100080000C9465000C9465000C94650011241FBE4F
:10009000CFEFD0E1DEBFCDBF11E0A0E0B1E0E8E3FB
:1000A000FBE000E00BBF02C007900D92A639B1073C
:1000B000D9F711E0A6E9B1E001C01D92A33EB10756
:1000C000E1F70E942B040C949A050C94000095E330
:1000D000292F2A95F1F7292F2A95F1F7292F2A950B
:1000E000F1F7292F2A95F1F79A95F1F7982F907F3C
:1000F000956095BB9B7F95BB8295807F856085BB16
:100100008B7F85BB0895CF93DF93EC0103C00E94E2
:100110006700219688818823D1F7DF91CF910895D8
:10012000982F907F946095BB9B7F95BB8295807F35
:10013000846085BB8B7F85BB85E08A95F1F7089548
:100140001F93182F85E3982F9A95F1F7982F9A957A
:10015000F1F7982F9A95F1F7982F9A95F1F78A95DC
:10016000F1F7812F0E9490001150123020F480E4AA
:100170009FE10197F1F71F9108958295880F880FED
:10018000807C680F862F80680E94A00008958FEF02
:1001900084BB80E69AEE0197F1F780E30E9490001D
:1001A00080E29EE40197F1F780E30E94900080EAEC
:1001B0009FE00197F1F782E30E94900088E20E949D
:1001C000A00088E00E94A00081E00E94A00086E0DC
:1001D0000E94A0008CE00E94A00008950F931F933E
:1001E000CF93DF938B01880F880F880F80640E9464
:1001F000A000C0E0D0E0F801EC0FFD1F80810E945C
:1002000067002196C830D105B1F7DF91CF911F91DA
:100210000F9108951F920F920FB60F920BB60F9287
:1002200011248F939F93EF93FF9380919C00809371
:10023000CA018091CA018E3279F08091E101E82FE4
:10024000F0E09091CA01E553FE4F90838F5F809359
:10025000E1011092DF010DC08091CA018E3249F494
:100260008091E1018093E0011092E10181E08093AF
:10027000DF01FF91EF919F918F910F900BBE0F9037
:100280000FBE0F901F90189510929B0088E18093ED
:100290009A0086E080939D001092980087E68093F4
:1002A00099000895982F80919B0085FFFCCF909333
:1002B0009C000895FC0107C080919B0085FFFCCF46
:1002C000319690939C0090819923B1F708951F92E5
:1002D0000F920FB60F9211242F933F935F936F935A
:1002E0007F938F939F93AF93BF93789484E682BF5D
:1002F0008091C8019091C90101969093C9018093A2
:10030000C801059709F0A9C01092C9011092C8014F
:100310008091C3019091C40101969093C401809390
:10032000C3018091C3019091C401049731F481E02D
:1003300090E09093C4018093C3018091C301909198
:10034000C401019769F4C09A84E190E035E0232F5D
:100350002A95F1F70197D9F7C09881E090E025C080
:100360008091C3019091C401029769F4C19A84E11C
:1003700090E035E0232F2A95F1F70197D9F7C1983E
:1003800082E090E012C08091C3019091C401039774
:1003900081F4C29A84E190E035E0232F2A95F1F7A9
:1003A0000197D9F7C29883E090E090939E018093E3
:1003B0009D018091B7019091B801899720F481E067
:1003C0008093C50102C01092C5018091B701909140
:1003D000B8016AE070E00E9486056F5F7F4F7093FE
:1003E000C7016093C6018091C6019091C701029731
:1003F00030F481E090E09093C7018093C601809132
:10040000C6019091C701049730F084E090E090938A
:10041000C7018093C6018091C5018130C9F4209144
:10042000C6013091C7018091960190919701019684
:1004300090939701809396018217930770F0109222
:1004400097011092960188B398E0892788BB05C070
:100450008091C501882309F4C398BF91AF919F9102
:100460008F917F916F915F913F912F910F900FBE70
:100470000F901F9018951F920F920FB60F92112494
:100480002F933F935F936F937F938F939F93AF933C
:10049000BF93789420919D0130919E0121303105C8
:1004A00009F04CC08091BB019091BC01892B69F48B
:1004B00080918800909189009093C2018093C1013E
:1004C0003093BC012093BB0139C08091880090918A
:1004D00089009093C0018093BF012091C1013091A8
:1004E000C201821B930B9093BE018093BD0164E710
:1004F00070E00E9486057093B8016093B701809107
:10050000B7019091B8018D57914040F08091B901A9
:100510009091BA019093B8018093B7018091B7018F
:100520009091B8019093BA018093B9011092BC01E7
:100530001092BB0110929E0110929D01BF91AF914C
:100540009F918F917F916F915F913F912F910F902C
:100550000FBE0F901F9018951F920F920FB60F921B
:1005600011242F933F935F936F937F938F939F9368
:10057000AF93BF93789480919D0190919E010297D3
:1005800009F04EC08091AF019091B001892B79F4B0
:1005900080918800909189009093B6018093B50175
:1005A00081E090E09093B0018093AF0139C08091D9
:1005B0008800909189009093B4018093B3012091B9
:1005C000B5013091B601821B930B9093B2018093D9
:1005D000B10164E770E00E9486057093AC016093FE
:1005E000AB018091AB019091AC018D57914040F0EF
:1005F0008091AD019091AE019093AC018093AB01DD
:100600008091AB019091AC019093AE018093AD01CC
:100610001092B0011092AF0110929E0110929D01B4
:10062000BF91AF919F918F917F916F915F913F911A
:100630002F910F900FBE0F901F9018951F920F9241
:100640000FB60F9211242F933F935F936F937F9375
:100650008F939F93AF93BF93789480919D019091D6
:100660009E01039709F04EC08091A3019091A401CF
:10067000892B79F480918800909189009093AA0148
:100680008093A90181E090E09093A4018093A3015D
:1006900039C080918800909189009093A80180933F
:1006A000A7012091A9013091AA01821B930B90937D
:1006B000A6018093A50164E770E00E94860570930F
:1006C000A00160939F0180919F019091A0018D579F
:1006D000914040F08091A1019091A2019093A001DE
:1006E00080939F0180919F019091A0019093A2011E
:1006F0008093A1011092A4011092A30110929E0177
:1007000010929D01BF91AF919F918F917F916F91B9
:100710005F913F912F910F900FBE0F901F901895F2
:100720000F931F93CF93DF939C018B01109298013D
:100730001092990110929A0110929B0110929C01C3
:10074000C0E0D0E0C901B8010E948605FE01E8566C
:10075000FE4F80832196C901B8010E9486059B0146
:100760006115710579F7DF91CF911F910F91089570
:100770008A3010F4805D0895895C089520EA3FE096
:1007800004C0F9013197F1F7019718161906CCF357
:10079000089535E004C0232F2A95F1F70197181624
:1007A0001906CCF3089520919601309197012F5F9F
:1007B0003F4F30939701209396012817390710F483
:1007C00080E00895109297011092960181E00895BB
:1007D0001F93162F6AE070E00E949003112381F1AD
:1007E000163010F015E002C0153049F480919C01DC
:1007F0008A3010F4805D01C0895C0E94670014306B
:1008000048F080919B018A3010F4805D01C0895CC2
:100810000E946700133048F080919A018A3010F4EA
:10082000805D01C0895C0E946700113049F08091B1
:1008300099018A3010F4805D01C0895C0E946700D4
:10084000809198018A3010F4805D01C0895C0E941B
:1008500067001F9108951F930E94C70080E060E029
:100860000E94BD0080E091E00E94830081E060E092
:100870000E94BD008FE091E00E94830010929B00D7
:1008800088E180939A0086E080939D001092980002
:1008900087E68093990080919A00806880939A00FF
:1008A000789487B3876087BB88B3887F88BBBB9AFF
:1008B000C398BC9AC49A13BE84E682BF81E087BF06
:1008C00010928B0082E080938A008AB785618ABF8C
:1008D0008AB7857D8ABF89B7806789BF7894C09AB7
:1008E00084E190E035E0232F2A95F1F70197D9F7BD
:1008F000C09881E090E090939E0180939D01909339
:10090000C4018093C30183B7876083BF1EE28091D7
:10091000DF01813009F0DFC08091E2018130A1F474
:100920001092E2010E94A00080E060E00E94BD0001
:1009300080E091E00E94830081E060E00E94BD00C1
:100940008FE091E00E94830030E040E020E018C09A
:10095000A22FB0E0FD01E553FE4F9081FD01E25969
:10096000FE4F8081981709F43F5FFD01E553FE4F6C
:100970009081AE57BE4F8C91981709F44F5F2F5F4F
:100980008091E001281720F3333111F481E005C094
:10099000433111F08EEF01C082E01092DF0181300F
:1009A000F1F58091B7019091B8016AE070E00E9482
:1009B00090038EE191E00E945A0180919A018A3061
:1009C00018F4982F905D02C0982F995C80919B003D
:1009D00085FFFCCF90939C00809199018A3018F498
:1009E000982F905D02C0982F995C80919B0085FFA5
:1009F000FCCF90939C00809198018A3018F4982F36
:100A0000905D02C0982F995C80919B0085FFFCCF80
:100A100090939C0080919B0085FFFCCF40C082306A
:100A200009F040C08091AB019091AC016AE070E0A8
:100A30000E9490038CE291E00E945A0180919A01F9
:100A40008A3018F4982F905D02C0982F995C80919D
:100A50009B0085FFFCCF90939C00809199018A3088
:100A600018F4982F905D02C0982F995C80919B009C
:100A700085FFFCCF90939C00809198018A3018F4F8
:100A8000982F905D02C0982F995C80919B0085FF04
:100A9000FCCF90939C0080919B0085FFFCCF10932E
:100AA0009C0019C08E3FB9F48AE391E00E945A017C
:100AB00081E00E94A00080E060E00E94BD0087E528
:100AC00091E00E94830081E060E00E94BD0083E627
:100AD00091E00E9483008091E201882309F017CF02
:100AE00069E00E94BD008091B7019091B80163E078
:100AF0000E94E80381E069E00E94BD008091AB01A3
:100B00009091AC0163E00E94E80301CFAA1BBB1BDC
:100B100051E107C0AA1FBB1FA617B70710F0A61BFD
:100B2000B70B881F991F5A95A9F780959095BC011E
:080B3000CD010895F894FFCFF8
:100B3800446973745F31203D20202020636D004498
:100B48006973745F32203D20202020636D00446962
:100B58007374616E63652031203D200044697374AD
:100B6800616E63652032203D2000436F6D6D616EBC
:100B780064204572726F722121202054727920619D
:100B88006761696E2E0A00436D64204572726F7248
:100B980021210054727920416761696E2E005265E7
:100BA80061642055536F6E69632053656E736F726D
:100BB8003100526561642055536F6E696320536537
:060BC8006E736F72320033
:00000001FF
