:100000000C9446000C9465000C9465000C946500FB
:100010000C9465000C9465000C9465000C946500CC
:100020000C9465000C9465000C9465000C946500BC
:100030000C9465000C9465000C9465000C946500AC
:100040000C9410010C9465000C9465000C946500F0
:100050000C9465000C9465000C9465000C9465008C
:100060000C9465000C9465000C9465000C9465007C
:100070000C9465000C9465000C9465000C9465006C
:100080000C9465000C9465000C94650011241FBE4F
:10009000CFEFD0E1DEBFCDBF11E0A0E0B1E0EEE9EF
:1000A000F5E000E00BBF02C007900D92AE31B10742
:1000B000D9F711E0AEE1B1E001C01D92A73AB10756
:1000C000E1F70E945E020C94CD020C94000095E3CF
:1000D000292F2A95F1F7292F2A95F1F7292F2A950B
:1000E000F1F7292F2A95F1F79A95F1F7982F907F3C
:1000F000956095BB9B7F95BB8295807F856085BB16
:100100008B7F85BB0895CF93DF93EC0103C00E94E2
:100110006700219688818823D1F7DF91CF910895D8
:10012000982F907F946095BB9B7F95BB8295807F35
:10013000846085BB8B7F85BB85E08A95F1F7089548
:100140001F93182F85E3982F9A95F1F7982F9A957A
:10015000F1F7982F9A95F1F7982F9A95F1F78A95DC
:10016000F1F7812F0E9490001150123020F480E4AA
:100170009FE10197F1F71F9108950F931F93CF937C
:10018000DF938B01880F880F880F80640E94A00086
:10019000C0E0D0E0F801EC0FFD1F80810E946700F5
:1001A0002196C830D105B1F7DF91CF911F910F9102
:1001B0000895882349F0813011F4605C05C08230D5
:1001C00011F4605F01C0605B862F80680E94A00010
:1001D00008958FEF84BB80E69AEE0197F1F780E3F4
:1001E0000E94900080E29EE40197F1F780E30E9474
:1001F000900080EA9FE00197F1F782E30E9490006F
:1002000088E20E94A00088E00E94A00081E00E9495
:10021000A00086E00E94A0008CE00E94A00008954B
:100220001F920F920FB60F920BB60F9211242F93BD
:100230003F934F935F936F937F938F939F93AF936E
:10024000BF93EF93FF9384E682BF8091A5019091C5
:10025000A60101969093A6018093A5010A9709F043
:1002600072C01092A6011092A50187B1807E87B955
:1002700087B187B9369A349BFECF349A84B195B151
:1002800090932401809323012091A3013091A40134
:100290004091A1015091A2012C333105C0F480910D
:1002A000230190912401F901EE0FFF1FE75DFE4F3E
:1002B00091838083480F591F5093A2014093A1015D
:1002C0002F5F3F4F3093A4012093A3013CC0809146
:1002D000230190912401840F951F209129013091D1
:1002E0002A01821B930B9093A2018093A1016CE3DE
:1002F00070E00E94B902709326016093250160911D
:1003000025017091260180E090E022EE34E040E08B
:1003100050E00E949A02672F782F892F99277093B7
:10032000280160932701E9E2F1E0828193818193C2
:10033000919381E0EF39F807C1F780912301909103
:10034000240191838083FF91EF91BF91AF919F91A1
:100350008F917F916F915F914F913F912F910F906E
:100360000BBE0F900FBE0F901F9018950F931F9309
:10037000CF93DF939C018B0110921E0110921F01FD
:10038000109220011092210110922201C0E0D0E0D1
:10039000C901B8010E94B902FE01E25EFE4F8083EE
:1003A0002196C901B8010E94B9029B01611571052E
:1003B00079F7DF91CF911F910F9108958A3010F452
:1003C000805D0895895C089520EA3FE004C0F9014A
:1003D0003197F1F701970097D1F7089535E004C000
:1003E000232F2A95F1F701970097D1F708951F93CE
:1003F000162F6AE070E00E94B601112381F11630D9
:1004000010F015E002C0153049F4809122018A30C5
:1004100010F4805D01C0895C0E946700143048F0D0
:10042000809121018A3010F4805D01C0895C0E94B6
:100430006700133048F0809120018A3010F4805D0D
:1004400001C0895C0E946700113049F080911F0152
:100450008A3010F4805D01C0895C0E946700809141
:100460001E018A3010F4805D01C0895C0E94670023
:100470001F9108956AE070E00E94B601809120010A
:100480008A3010F4805D01C0895C0E946700809111
:100490001F018A3010F4805D01C0895C0E946700F2
:1004A00080E091E00E94830080911E018A3010F468
:1004B000805D01C0895C0E9467000895BC9AC49861
:1004C0000E94E90081E00E94A00080E060E00E94BC
:1004D000D90082E091E00E94830081E060E00E9408
:1004E000D9008EE091E00E94830087B18F7187B9B7
:1004F00086B1876886B913BE84E682BF81E087BF74
:10050000789483B7876083BF80E066E00E94D9005B
:1005100080912701909128010E943A0281E06CE0CD
:100520000E94D900809125019091260164E00E94EB
:10053000F701EACF629FD001739FF001829FE00D27
:10054000F11D649FE00DF11D929FF00D839FF00D52
:10055000749FF00D659FF00D9927729FB00DE11DFE
:10056000F91F639FB00DE11DF91FBD01CF011124DB
:100570000895AA1BBB1B51E107C0AA1FBB1FA617EA
:10058000B70710F0A61BB70B881F991F5A95A9F73C
:0E05900080959095BC01CD010895F894FFCFA1
:10059E002E00544D50203D20202020204300544D4D
:0E05AE005020617667203D2020202020000094
:00000001FF
