:100000000C9446000C9465000C9465000C946500FB
:100010000C9465000C9465000C9465000C946500CC
:100020000C9465000C9465000C9465000C946500BC
:100030000C9465000C9465000C9465000C946500AC
:100040000C9465000C9465000C9465000C9465009C
:100050000C9465000C9465000C9465000C9465008C
:100060000C9465000C9465000C9465000C9465007C
:100070000C9465000C9465000C940A010C946500C6
:100080000C9465000C9465000C94650011241FBE4F
:10009000CFEFD0E1DEBFCDBF11E0A0E0B1E0ECE8F2
:1000A000F6E000E00BBF02C007900D92A23AB10744
:1000B000D9F711E0A2EAB1E001C01D92A03CB1075E
:1000C000E1F70E94EB010C9444030C94000095E3CB
:1000D000292F2A95F1F7292F2A95F1F7292F2A950B
:1000E000F1F7292F2A95F1F79A95F1F7982F907F3C
:1000F000956095BB9B7F95BB8295807F856085BB16
:100100008B7F85BB0895CF93DF93EC0103C00E94E2
:100110006700219688818823D1F7DF91CF910895D8
:10012000982F907F946095BB9B7F95BB8295807F35
:10013000846085BB8B7F85BB85E08A95F1F7089548
:100140001F93182F85E3982F9A95F1F7982F9A957A
:10015000F1F7982F9A95F1F7982F9A95F1F78A95DC
:10016000F1F7812F0E9490001150123020F480E4AA
:100170009FE10197F1F71F9108958295880F880FED
:10018000807C680F862F80680E94A00008958FEF02
:1001900084BB80E69AEE0197F1F780E30E9490001D
:1001A00080E29EE40197F1F780E30E94900080EAEC
:1001B0009FE00197F1F782E30E94900088E20E949D
:1001C000A00088E00E94A00081E00E94A00086E0DC
:1001D0000E94A0008CE00E94A00008950F931F933E
:1001E000CF93DF938B01880F880F880F80640E9464
:1001F000A000C0E0D0E0F801EC0FFD1F80810E945C
:1002000067002196C830D105B1F7DF91CF911F91DA
:100210000F9108951F920F920FB60F920BB60F9287
:1002200011248F939F93EF93FF9380919C00809371
:10023000A7018091A7018E3279F08091BE01E82F4D
:10024000F0E09091A701E855FE4F90838F5F809377
:10025000BE011092BC010DC08091A7018E3249F4FD
:100260008091BE018093BD011092BE0181E0809318
:10027000BC01FF91EF919F918F910F900BBE0F905A
:100280000FBE0F901F90189510929B0088E18093ED
:100290009A0086E080939D001092980087E68093F4
:1002A00099000895982F80919B0085FFFCCF909333
:1002B0009C000895FC0107C080919B0085FFFCCF46
:1002C000319690939C0090819923B1F708950F93F4
:1002D0001F93CF93DF939C018B011092A201109288
:1002E000A3011092A4011092A5011092A601C0E0F2
:1002F000D0E0C901B8010E943003FE01EE55FE4F67
:1003000080832196C901B8010E9430039B016115C9
:10031000710579F7DF91CF911F910F9108958A3080
:1003200010F4805D0895895C08958A3310F4805339
:100330000895813408F08753089520EA3FE004C00F
:10034000F9013197F1F7019718161906CCF30895C2
:100350001F93162F6AE070E00E946701112381F15C
:10036000163010F015E002C0153049F48091A60156
:100370008A3010F4805D01C0895C0E9467001430EF
:1003800048F08091A5018A3010F4805D01C0895C3D
:100390000E946700133048F08091A4018A3010F465
:1003A000805D01C0895C0E946700113049F0809136
:1003B000A3018A3010F4805D01C0895C0E9467004F
:1003C0008091A2018A3010F4805D01C0895C0E9496
:1003D00067001F9108958F929F92AF92BF92CF9224
:1003E000DF92FF920F931F93CF93DF93BC9AC49A2F
:1003F00010929B0088E180939A0086E080939D0094
:100400001092980087E6809399000E94C70080911F
:100410009A00806880939A00789481E00E94A000FE
:1004200080E060E00E94BD0080E091E00E948300D7
:10043000C0E0D0E0AA24BB24CC24DD24A0EA8A2E8C
:10044000AFE09A2E8091BC01813011F01FEFC7C040
:100450008091BF01813021F51092BF010E94A00060
:1004600080E060E00E94BD0080E191E00E94830096
:10047000C50163E00E94A8018AE191E00E94830027
:1004800081E060E00E94BD008DE191E00E94830068
:10049000C60163E00E94A8018AE191E00E94830006
:1004A00080E060E00E94BD0000E0FF2410E01CC07E
:1004B000FD01E855FE4F9081FD01EB57FE4F808115
:1004C000981709F40F5FFD01E855FE4F9081FD017B
:1004D000ED56FE4F8081981709F4F394A855BE4F4E
:1004E0008C910E9467001F5FA12FB0E08091BD0139
:1004F00090E00397A817B907DCF20D3011F411E072
:1005000006C08DE0F81611F01EEF01C012E0109247
:10051000BC01113019F54DE020E030E019C0E42FA6
:10052000F0E0E855FE4FE081EA3310F4E05303C0F9
:10053000E13408F0E753C901F3E0880F991FFA95F9
:10054000E1F7220F331F280F391F2E0F311D4F5F88
:100550008091BD01481718F3590141C0123019F5B7
:100560004DE020E030E019C0E42FF0E0E855FE4F08
:10057000E081EA3310F4E05303C0E13408F0E753BC
:10058000C90163E0880F991F6A95E1F7220F331FB5
:10059000280F391F2E0F311D4F5F8091BD01481765
:1005A00018F369011CC01E3FD1F487E291E00E945C
:1005B0005A0181E00E94A00080E060E00E94BD003E
:1005C00084E491E00E94830081E060E00E94BD002D
:1005D00080E591E00E94830081E08093BF018091DB
:1005E000BF01882309F51F3FF9F060E00E94BD00BC
:1005F00080E191E00E948300C50163E00E94A801B0
:100600008AE191E00E94830081E060E00E94BD00E9
:100610008DE191E00E948300C60163E00E94A80181
:100620008AE191E00E9483002196C130D10519F43E
:100630008BE591E005C0C430D10529F480E791E055
:100640000E945A0105C0C730D10511F4C0E0D0E0C6
:100650008AE090E0F4013197F1F70197D9F7F2CEF3
:10066000AA1BBB1B51E107C0AA1FBB1FA617B707D8
:1006700010F0A61BB70B881F991F5A95A9F78095F4
:0C0680009095BC01CD010895F894FFCFC7
:10068C00426C75746F6F7468204D61737465720081
:10069C00446973745F31203D2000636D00446973BD
:1006AC00745F32203D2000436F6D6D616E64204598
:1006BC0072726F72212120205472792061676169F6
:1006CC006E2E0A00436D64204572726F72212100F8
:1006DC0054727920416761696E2E00526561642005
:1006EC0055536F6E69632053656E736F72312E00B4
:1006FC00526561642055536F6E69632053656E7348
:10070C006F72322E0044697374616E636520312000
:10071C003D200044697374616E63652032203D2076
:02072C000000CB
:00000001FF
