:100000000C9446000C9457020C9465000C94650007
:100010000C9465000C9465000C9465000C946500CC
:100020000C9465000C9465000C9465000C946500BC
:100030000C9465000C9465000C9465000C946500AC
:100040000C9433010C9465000C9465000C946500CD
:100050000C9465000C9465000C9465000C9465008C
:100060000C9465000C9465000C9465000C9465007C
:100070000C9465000C9465000C940A010C946500C6
:100080000C9465000C9465000C94650011241FBE4F
:10009000CFEFD0E1DEBFCDBF11E0A0E0B1E0E6EDF3
:1000A000F9E000E00BBF02C007900D92AE35B1073A
:1000B000D9F711E0AEE5B1E001C01D92A838B10753
:1000C000E1F70E9465030C94E9040C94000095E3A9
:1000D000292F2A95F1F7292F2A95F1F7292F2A950B
:1000E000F1F7292F2A95F1F79A95F1F7982F907F3C
:1000F000956095BB9B7F95BB8295807F856085BB16
:100100008B7F85BB0895CF93DF93EC0103C00E94E2
:100110006700219688818823D1F7DF91CF910895D8
:10012000982F907F946095BB9B7F95BB8295807F35
:10013000846085BB8B7F85BB85E08A95F1F7089548
:100140001F93182F85E3982F9A95F1F7982F9A957A
:10015000F1F7982F9A95F1F7982F9A95F1F78A95DC
:10016000F1F7812F0E9490001150123020F480E4AA
:100170009FE10197F1F71F9108958295880F880FED
:10018000807C680F862F80680E94A00008958FEF02
:1001900084BB80E69AEE0197F1F780E30E9490001D
:1001A00080E29EE40197F1F780E30E94900080EAEC
:1001B0009FE00197F1F782E30E94900088E20E949D
:1001C000A00088E00E94A00081E00E94A00086E0DC
:1001D0000E94A0008CE00E94A00008950F931F933E
:1001E000CF93DF938B01880F880F880F80640E9464
:1001F000A000C0E0D0E0F801EC0FFD1F80810E945C
:1002000067002196C830D105B1F7DF91CF911F91DA
:100210000F9108951F920F920FB60F9211248F9392
:100220009F9380919C00809385019091850180919E
:100230009B0085FFFCCF90939C0080919B0085FFE5
:10024000FCCF8AE080939C00809186018F5F809331
:10025000860181E0809387019F918F910F900FBE5F
:100260000F901F9018951F920F920FB60F920BB61A
:100270000F9211242F933F934F935F936F937F932C
:100280008F939F93AF93BF93EF93FF93789484E6FC
:1002900082BF8091830190918401019690938401A3
:1002A00080938301499709F0EFC010928401109266
:1002B000830187B1807E87B9369A349BFECF84B1A3
:1002C00095B190935B0180935A0187B1807E87B985
:1002D000389A369A349BFECF84B195B190936601DB
:1002E00080936501409181015091820120917D01AF
:1002F00030917E0160917F01709180014430510501
:1003000038F580915A0190915B01DA01AA0FBB1F69
:10031000FD01E359FE4F91838083280F391F3093ED
:100320007E0120937D018091650190916601AB581B
:10033000BE4F8D939C93680F791F709380016093DB
:100340007F014F5F5F4F50938201409381019CC0BA
:1003500080915A0190915B01820F931F20916D0152
:1003600030916E01821B930B90937E0180937D01EF
:10037000969587959695879590935D0180935C01FE
:1003800080916F019091700190936E0180936D0147
:1003900080917101909172019093700180936F012F
:1003A0008091730190917401909372018093710117
:1003B00080915A0190915B01909374018093730135
:1003C0008091650190916601860F971F20917501BC
:1003D00030917601821B930B9093800180937F0173
:1003E0009695879596958795909368018093670178
:1003F000609167017091680180E090E022EE34E046
:1004000040E050E00E94940420E03BE040E050E0F7
:100410000E94C70430936A012093690160916501CD
:100420007091660180E090E022EE34E040E050E020
:100430000E94940420E03BE040E050E00E94C704AA
:1004400030936C0120936B0180917701909178013A
:1004500090937601809375018091790190917A0152
:10046000909378018093770180917B0190917C013A
:1004700090937A0180937901809165019091660152
:1004800090937C0180937B01FF91EF91BF91AF919D
:100490009F918F917F916F915F914F913F912F919C
:1004A0000F900BBE0F900FBE0F901F9018951F92CC
:1004B0000F920FB60F920BB60F9211242F933F930A
:1004C0008F939F93EF93FF93789419BE809163016C
:1004D0008F5F8093630180916301823011F41092E9
:1004E000630180916301882319F41092640106C0AE
:1004F00080916301813011F48093640184E190E084
:1005000020EA3FE0F9013197F1F70197D9F7809B95
:10051000FECF84E190E020EA3FE0F9013197F1F766
:100520000197D9F781E088BF89BFFF91EF919F9133
:100530008F913F912F910F900BBE0F900FBE0F9098
:100540001F90189510929B0088E180939A0086E096
:1005500080939D001092980087E6809399000895FB
:10056000982F80919B0085FFFCCF90939C0008956D
:10057000FC0107C080919B0085FFFCCF31969093D2
:100580009C0090819923B1F708950F931F93CF9307
:10059000DF939C018B0110925E0110925F0110921B
:1005A00060011092610110926201C0E0D0E0C901C7
:1005B000B8010E94B304FE01E25AFE4F80832196E7
:1005C000C901B8010E94B3049B016115710579F757
:1005D000DF91CF911F910F9108958A3010F0895CBF
:1005E0000895805D089520EA3FE004C0F901319745
:1005F000F1F7019718161906CCF308951F93162FDB
:100600006AE070E00E94C502112381F1163010F0FB
:1006100015E002C0153049F4809162018A3010F073
:10062000895C01C0805D0E946700143048F08091B1
:1006300061018A3010F0895C01C0805D0E94670012
:10064000133048F0809160018A3010F0895C01C05D
:10065000805D0E946700113049F080915F018A300F
:1006600010F0895C01C0805D0E94670080915E018E
:100670008A3010F0895C01C0805D0E9467001F9184
:1006800008956AE070E00E94C502809160018A309E
:1006900010F0895C01C0805D0E94670080915F015D
:1006A0008A3010F0895C01C0805D0E94670080E0A4
:1006B00091E00E94830080915E018A3010F0895C95
:1006C00001C0805D0E9467000895EF92FF920F9332
:1006D0001F93BC9AC49A8898909A80916A008E7FE2
:1006E00080936A0080916A00826080936A0089B773
:1006F000816089BF0E94C70081E00E94A00080E065
:1007000060E00E94BD0082E091E00E94830081E0F1
:1007100060E00E94BD0082E191E00E94830010929F
:100720009B0088E180939A0086E080939D00109260
:10073000980087E68093990080919A008068809362
:100740009A0087B18F7187B986B1876886B913BE61
:1007500084E682BF81E087BF789483B7876083BFD8
:10076000EE24EA941AE00EE2F3E4FF2E8091870172
:10077000813009F0BBC080918501803311F4C49AA7
:10078000B1C080918501813311F4C498ABC08091D0
:100790008501823309F04AC080916B0190916C0110
:1007A0006AE070E00E94C50281E291E00E94B80216
:1007B000809160018A3018F0982F995C02C0982FC0
:1007C000905D80919B0085FFFCCF90939C00809171
:1007D0005F018A3018F0982F995C02C0982F905DC5
:1007E00080919B0085FFFCCF90939C0080919B00A3
:1007F00085FFFCCF00939C0080915E018A3018F049
:10080000982F995C02C0982F905D80919B0085FF86
:10081000FCCF90939C0080919B0085FFFCCFF092D1
:100820009C0080919B0085FFFCCF51C08091850189
:10083000833309F04FC080915A0190915B016AE0C7
:1008400070E00E94C50280E391E00E94B8028091AE
:1008500061018A3018F0982F995C02C0982F905D42
:1008600080919B0085FFFCCF90939C00809160015C
:100870008A3018F0982F995C02C0982F905D809173
:100880009B0085FFFCCF90939C0080915F018A3094
:1008900018F0982F995C02C0982F905D80919B0072
:1008A00085FFFCCF90939C0080915E018A3018F008
:1008B000982F995C02C0982F905D80919B0085FFD6
:1008C000FCCF90939C0080919B0085FFFCCF109300
:1008D0009C0008C0809185018F3F21F08DE391E05D
:1008E0000E94B802E0928501109287018091640114
:1008F000882351F46AE00E94BD0080916B019091C1
:100900006C010E94410332CF80916401813009F073
:100910002DCF6AE00E94BD0080915A0190915B0149
:1009200064E00E94FE0222CF629FD001739FF0011B
:10093000829FE00DF11D649FE00DF11D929FF00D6F
:10094000839FF00D749FF00D659FF00D9927729FA6
:10095000B00DE11DF91F639FB00DE11DF91FBD0131
:10096000CF0111240895AA1BBB1B51E107C0AA1F88
:10097000BB1FA617B70710F0A61BB70B881F991F40
:100980005A95A9F780959095BC01CD010895A1E2F3
:100990001A2EAA1BBB1BFD010DC0AA1FBB1FEE1FF9
:1009A000FF1FA217B307E407F50720F0A21BB30B44
:1009B000E40BF50B661F771F881F991F1A9469F7C0
:1009C00060957095809590959B01AC01BD01CF011C
:0609D0000895F894FFCF2A
:1009D6002E00544D5020617667203D202020202097
:1009E600430043445320617667203D202020202089
:1009F6000054656D7065726174757265203D2000E6
:100A06004344532056616C7565203D2000436F6D4D
:100A16006D616E64204572726F72212120205472BE
:0E0A26007920616761696E2E0A00E803E8031B
:00000001FF
