:100000000C9446000C9465000C9465000C946500FB
:100010000C9465000C94C6020C9436030C94A70350
:100020000C9465000C9465000C9465000C946500BC
:100030000C9465000C9465000C9465000C946500AC
:100040000C9410010C9465000C9418040C94650039
:100050000C9465000C9465000C9465000C9465008C
:100060000C9465000C9465000C9465000C9465007C
:100070000C9465000C9465000C9465000C9465006C
:100080000C9465000C9465000C94650011241FBE4F
:10009000CFEFD0E1DEBFCDBF11E0A0E0B1E0E2E8FC
:1000A000FDE000E00BBF02C007900D92A039B10740
:1000B000D9F711E0A0E9B1E001C01D92AF3EB10750
:1000C000E1F70E94C8040C94BF060C94000095E36D
:1000D000292F2A95F1F7292F2A95F1F7292F2A950B
:1000E000F1F7292F2A95F1F79A95F1F7982F907F3C
:1000F000956095BB9B7F95BB8295807F856085BB16
:100100008B7F85BB0895CF93DF93EC0103C00E94E2
:100110006700219688818823D1F7DF91CF910895D8
:10012000982F907F946095BB9B7F95BB8295807F35
:10013000846085BB8B7F85BB85E08A95F1F7089548
:100140001F93182F85E3982F9A95F1F7982F9A957A
:10015000F1F7982F9A95F1F7982F9A95F1F78A95DC
:10016000F1F7812F0E9490001150123020F480E4AA
:100170009FE10197F1F71F9108950F931F93CF937C
:10018000DF938B01880F880F880F80640E94A00086
:10019000C0E0D0E0F801EC0FFD1F80810E946700F5
:1001A0002196C830D105B1F7DF91CF911F910F9102
:1001B0000895882349F0813011F4605C05C08230D5
:1001C00011F4605F01C0605B862F80680E94A00010
:1001D00008958FEF84BB80E69AEE0197F1F780E3F4
:1001E0000E94900080E29EE40197F1F780E30E9474
:1001F000900080EA9FE00197F1F782E30E9490006F
:1002000088E20E94A00088E00E94A00081E00E9495
:10021000A00086E00E94A0008CE00E94A00008954B
:100220001F920F920FB60F9211242F933F935F935B
:100230006F937F938F939F93AF93BF9384E682BF17
:100240008091EC019091ED0101969093ED018093E6
:10025000EC01059709F08CC11092ED011092EC01B0
:100260008091B6019091B7018130910509F454C095
:10027000823091051CF4892B49F078C082309105B9
:1002800009F457C0039709F071C060C080919601CE
:100290009091970101969093970180939601809198
:1002A000960190919701049731F481E090E090934A
:1002B0009701809396018091960190919701019703
:1002C00051F4C09A84E190E035E0232F2A95F1F7AC
:1002D0000197D9F72AC080919601909197010297D2
:1002E00051F4C19A84E190E035E0232F2A95F1F78B
:1002F0000197D9F727C080919601909197010397B4
:1003000009F034C0C29A84E190E035E0232F2A95A9
:10031000F1F70197D9F723C0C09A84E190E035E066
:10032000232F2A95F1F70197D9F7C09881E090E043
:1003300019C0C19A84E190E035E0232F2A95F1F7A6
:100340000197D9F7C19882E090E00CC0C29A84E18D
:1003500090E035E0232F2A95F1F70197D9F7C2985D
:1003600083E090E0909399018093980180919001AF
:1003700090919101899720F481E08093A00102C0BF
:100380001092A0018091920190919301899720F49D
:1003900081E08093A10102C01092A101809190019F
:1003A000909191016AE070E00E94AB066F5F7F4F11
:1003B0007093A5016093A4018091920190919301A3
:1003C0006AE070E00E94AB066F5F7F4F7093A701F9
:1003D0006093A6012091A4013091A5018091A6010E
:1003E0009091A7012817390728F08091A6019091D4
:1003F000A70104C08091A4019091A5019093A3014D
:100400008093A2018091A2019091A301029730F400
:1004100081E090E09093A3018093A2018091A201DA
:100420009091A301049730F084E090E09093A301B1
:100430008093A2018091A4019091A501029730F4CC
:1004400081E090E09093A5018093A4018091A401A4
:100450009091A501049730F084E090E09093A5017D
:100460008093A4018091A6019091A701029730F496
:1004700081E090E09093A7018093A6018091A6016E
:100480009091A701049730F084E090E09093A70149
:100490008093A6018091A001813021F08091A1017B
:1004A0008130C9F42091A2013091A3018091B8015B
:1004B0009091B90101969093B9018093B801821788
:1004C000930790F01092B9011092B80188B390E1AF
:1004D000892788BB09C08091A001882329F48091D5
:1004E000A101882309F4C4988091A0018130C9F446
:1004F0002091A4013091A5018091BA019091BB0196
:1005000001969093BB018093BA018217930770F014
:100510001092BB011092BA0188B390E2892788BB80
:1005200005C08091A001882309F4C59A8091A1019A
:100530008130C9F42091A6013091A7018091BC01BE
:100540009091BD0101969093BD018093BC018217EB
:10055000930770F01092BD011092BC0188B390E433
:10056000892788BB05C08091A101882309F4C69A18
:10057000BF91AF919F918F917F916F915F913F91CB
:100580002F910F900FBE0F901F9018951F920F92F2
:100590000FB60F9211242F933F935F936F937F9326
:1005A0008F939F93AF93BF932091980130919901BE
:1005B0002130310509F04CC08091E4019091E501B2
:1005C000892B69F480918800909189009093EB01C8
:1005D0008093EA013093E5012093E40139C08091D2
:1005E0008800909189009093E9018093E80120911F
:1005F000EA013091EB01821B930B9093E70180930A
:10060000E60164E770E00E94AB067093910160938D
:10061000900180919001909191018D57914040F00F
:1006200080919A0190919B01909391018093900108
:10063000809190019091910190939B0180939A01F8
:100640001092E5011092E401109299011092980124
:10065000BF91AF919F918F917F916F915F913F91EA
:100660002F910F900FBE0F901F9018951F920F9211
:100670000FB60F9211242F933F935F936F937F9345
:100680008F939F93AF93BF9380919801909199011D
:10069000029709F04EC08091DC019091DD01892B19
:1006A00079F480918800909189009093E301809380
:1006B000E20181E090E09093DD018093DC0139C09C
:1006C00080918800909189009093E1018093E001EE
:1006D0002091E2013091E301821B930B9093DF01A3
:1006E0008093DE0164E770E00E94AB067093930193
:1006F0006093920180919201909193018D57914066
:1007000040F080919C0190919D0190939301809382
:100710009201809192019091930190939D01809319
:100720009C011092DD011092DC011092990110924F
:100730009801BF91AF919F918F917F916F915F9140
:100740003F912F910F900FBE0F901F9018951F9201
:100750000F920FB60F9211242F933F935F936F93D5
:100760007F938F939F93AF93BF93809198019091C4
:100770009901039709F04EC08091D4019091D50161
:10078000892B79F480918800909189009093DB0106
:100790008093DA0181E090E09093D5018093D401B9
:1007A00039C080918800909189009093D9018093FD
:1007B000D8012091DA013091DB01821B930B9093D9
:1007C000D7018093D60164E770E00E94AB06709376
:1007D00095016093940180919401909195018D57BA
:1007E000914040F080919E0190919F0190939501DE
:1007F00080939401809194019091950190939F0131
:1008000080939E011092D5011092D401109299010B
:1008100010929801BF91AF919F918F917F916F91AD
:100820005F913F912F910F900FBE0F901F901895E1
:100830001F920F920FB60F9211248F938CB1809359
:10084000D1018091D1015D9BFECF8CB95D9BFECF24
:100850008AE08CB98091D2018F5F8093D20181E0D0
:100860008093D3018F910F900FBE0F901F9018951A
:100870001BB888E18AB986E08093950010929000B9
:1008800087E689B908955D9BFECF8CB90895FC0178
:1008900004C05D9BFECF31968CB980818823C9F757
:1008A00008950F931F93CF93DF939C018B011092B8
:1008B000CC011092CD011092CE011092CF01109276
:1008C000D001C0E0D0E0C901B8010E94AB06FE0132
:1008D000E453FE4F80832196C901B8010E94AB0604
:1008E0009B016115710579F7DF91CF911F910F91F0
:1008F00008958A3010F4805D0895895C089520EA97
:100900003FE004C0F9013197F1F701971816190675
:10091000CCF3089535E004C0232F2A95F1F7019711
:1009200018161906CCF30895E82FF0E0EE0FFF1F1C
:10093000E854FE4F808191810196918380838617D0
:10094000970710F480E008951182108281E00895E5
:100950006AE070E00E9451048091CE018A3010F468
:10096000805D01C0895C0E9467008091CD018A3062
:1009700010F4805D01C0895C0E9467008091CC0109
:100980008A3010F4805D01C0895C0E946700089580
:10099000AF92BF92CF92DF92EF92FF920F931F938D
:1009A000CF93DF931BB888E18AB986E080939500E6
:1009B0001092900087E689B90E94E90087B38760AA
:1009C00087BB88B3887F88BB13BE84E682BF87B7A6
:1009D0008E7F87BF10928B0082E080938A0082B165
:1009E0008F7882B98AB785618ABF8AB7857D8ABFC9
:1009F00089B7806789BF579A7894C09A84E190E05C
:100A000035E0232F2A95F1F70197D9F7C09881E0B7
:100A100090E090939901809398019093970180932F
:100A2000960183B7876083BF0FEF34E0A32EB12C0C
:100A30001AE0C3E0D0E022E0E22EF12C91E0C92ED2
:100A4000D12C8091D3018130E1F78091EE0181308A
:100A500011F41092EE018091D101803309F08EC023
:100A60001092B7011092B60187B7816087BF80915D
:100A70009001909191016AE070E00E94510480E041
:100A800091E00E9447048091CE018A3010F4805D8D
:100A900001C0895C5D9BFECF8CB98091CD018A300D
:100AA00010F4805D01C0895C5D9BFECF8CB98091A4
:100AB000CC018A3010F4805D01C0895C5D9BFECF63
:100AC0008CB95D9BFECF1CB98091920190919301EE
:100AD0006AE070E00E94510487E191E00E944704BF
:100AE0008091CE018A3010F4805D01C0895C5D9BED
:100AF000FECF8CB98091CD018A3010F4805D01C0A9
:100B0000895C5D9BFECF8CB98091CC018A3010F45A
:100B1000805D01C0895C5D9BFECF8CB95D9BFECF83
:100B20001CB980919401909195016AE070E00E9457
:100B300051048EE291E00E9447048091CE018A30F8
:100B400010F4805D01C0895C5D9BFECF8CB9809103
:100B5000CD018A3010F4805D01C0895C5D9BFECFC1
:100B60008CB98091CC018A3010F4805D01C0895C21
:100B70005D9BFECF8CB95D9BFECFB9C08091D1014A
:100B80008133A1F5D092B701C092B60187B78160D9
:100B900087BF80919001909191016AE070E00E947E
:100BA000510480E091E00E9447048091CE018A3098
:100BB00010F4805D01C0895C5D9BFECF8CB9809193
:100BC000CD018A3010F4805D01C0895C5D9BFECF51
:100BD0008CB98091CC018A3010F4805D01C0895CB1
:100BE0005D9BFECF8CB95D9BFECF81C08091D10112
:100BF0008233A1F5F092B701E092B60187B7816028
:100C000087BF80919201909193016AE070E00E9409
:100C1000510487E191E00E9447048091CE018A301F
:100C200010F4805D01C0895C5D9BFECF8CB9809122
:100C3000CD018A3010F4805D01C0895C5D9BFECFE0
:100C40008CB98091CC018A3010F4805D01C0895C40
:100C50005D9BFECF8CB95D9BFECF49C08091D101D9
:100C60008333A1F5D093B701C093B60187B78160F4
:100C700087BF80919401909195016AE070E00E9495
:100C800051048EE291E00E9447048091CE018A30A7
:100C900010F4805D01C0895C5D9BFECF8CB98091B2
:100CA000CD018A3010F4805D01C0895C5D9BFECF70
:100CB0008CB98091CC018A3010F4805D01C0895CD0
:100CC0005D9BFECF8CB95D9BFECF11C08091D101A1
:100CD000843379F4B092B701A092B60187B78E7FC2
:100CE00087BF85E491E00E9447045D9BFECF1CB95D
:100CF0001EC08091D1018F3FD1F08BE591E00E9421
:100D0000470481E00E94A00080E060E00E94D900DA
:100D100088E791E00E94830081E060E00E94D900B2
:100D200084E891E00E94830081E08093EE0180914D
:100D3000EE01882359F46BE00E94D90081E06CE059
:100D40000E94D9008091D1010E9467000093D101D7
:100D50001092D30176CEAA1BBB1B51E107C0AA1F7C
:100D6000BB1FA617B70710F0A61BB70B881F991F4C
:100D70005A95A9F780959095BC01CD010895F894F6
:020D8000FFCFA3
:100D82004D656173757265642044697374616E6345
:100D9200652031203D20004D6561737572656420C8
:100DA20044697374616E63652032203D20004D6595
:100DB2006173757265642044697374616E63652042
:100DC20033203D2000556C747261736F6E6963202D
:100DD20053656E736F72204F464600436F6D6D61AF
:100DE2006E64204572726F72212120205472792024
:100DF200616761696E2E0A00436D64204572726FED
:100E02007221210054727920416761696E2E0000BF
:00000001FF
