:100000000C9446000C9465000C9465000C946500FB
:100010000C9465000C9465000C9465000C946500CC
:100020000C9465000C9465000C9465000C946500BC
:100030000C9465000C9465000C9465000C946500AC
:100040000C9465000C9465000C9465000C9465009C
:100050000C9465000C9465000C9465000C9465008C
:100060000C9465000C9465000C9465000C9465007C
:100070000C9465000C9465000C9465000C9465006C
:100080000C9465000C9465000C94650011241FBE4F
:10009000CFEFD0E1DEBFCDBF11E0A0E0B1E0EEE2F6
:1000A000F5E000E00BBF02C007900D92AA31B10746
:1000B000D9F711E0AAE1B1E001C01D92A132B10768
:1000C000E1F70E9407020C9495020C94000095E35E
:1000D000292F2A95F1F7292F2A95F1F7292F2A950B
:1000E000F1F7292F2A95F1F79A95F1F7982F907F3C
:1000F000956095BB9B7F95BB8295807F856085BB16
:100100008B7F85BB0895CF93DF93EC0103C00E94E2
:100110006700219688818823D1F7DF91CF910895D8
:10012000982F907F946095BB9B7F95BB8295807F35
:10013000846085BB8B7F85BB85E08A95F1F7089548
:100140001F93182F85E3982F9A95F1F7982F9A957A
:10015000F1F7982F9A95F1F7982F9A95F1F78A95DC
:10016000F1F7812F0E9490001150123020F480E4AA
:100170009FE10197F1F71F9108950F931F93CF937C
:10018000DF938B01880F880F880F80640E94A00086
:10019000C0E0D0E0F801EC0FFD1F80810E946700F5
:1001A0002196C830D105B1F7DF91CF911F910F9102
:1001B0000895882349F0813011F4605C05C08230D5
:1001C00011F4605F01C0605B862F80680E94A00010
:1001D00008958FEF84BB80E69AEE0197F1F780E3F4
:1001E0000E94900080E29EE40197F1F780E30E9474
:1001F000900080EA9FE00197F1F782E30E9490006F
:1002000088E20E94A00088E00E94A00081E00E9495
:10021000A00086E00E94A0008CE00E94A00008954B
:100220009C0180911F01909120018217930724F473
:1002300020911F0130912001D8983BBD2ABD08951F
:100240009C0180911F01909120018217930724F453
:1002500020911F0130912001D89A80911F01909127
:100260002001821B930B9BBD8ABD0895D8981BBCAF
:100270001ABC08959C0180911F0190912001821762
:1002800093072CF420911F013091200112C080911E
:100290001F0190912001909581959F4F2817390754
:1002A00044F480911F019091200122273327281BBD
:1002B000390B121613067CF480911F0190912001D6
:1002C0008217930724F420911F0130912001D898C0
:1002D0003BBD2ABD08952115310521F4D8981BBCDA
:1002E0001ABC089544275527421B530B80911F01C8
:1002F000909120018417950724F440911F0150919B
:100300002001D89A80911F0190912001841B950BA8
:100310009BBD8ABD08950F931F93CF93DF939C01DC
:100320008B0110921A0110921B0110921C01109265
:100330001D0110921E01C0E0D0E0C901B8010E9469
:100340008102FE01E65EFE4F80832196C901B8015D
:100350000E9481029B016115710579F7DF91CF91B0
:100360001F910F9108958A3010F4805D0895895C83
:10037000089520EA3FE004C0F9013197F1F70197B1
:1003800018161906CCF308951F93162F6AE070E033
:100390000E948B01112381F1163010F015E002C08C
:1003A000153049F480911E018A3010F4805D01C03F
:1003B000895C0E946700143048F080911D018A30EA
:1003C00010F4805D01C0895C0E946700133048F022
:1003D00080911C018A3010F4805D01C0895C0E940C
:1003E0006700113049F080911B018A3010F4805D64
:1003F00001C0895C0E94670080911A018A3010F464
:10040000805D01C0895C0E9467001F910895CF93B1
:10041000DF93BD9AD09A0E94E90082E88FBD8BE1FC
:100420008EBD82E390E097BD86BD86B597B590936B
:10043000200180931F011BBC1ABC80E060E00E9479
:10044000D90080E091E00E94830081E060E00E949A
:10045000D90081E191E00E948300C0EADFE081E001
:1004600067E00E94D90082E390E062E00E94C4014C
:1004700080911F0190912001C2971CF082E390E0CF
:1004800004C080911F0190912001D8989BBD8ABD26
:1004900088E893E1FE013197F1F70197D9F7D898F1
:1004A0001BBC1ABC80ED97E0FE013197F1F7019774
:1004B000D9F780911F0190912001C2971CF022E38F
:1004C00030E004C020911F0130912001D89A809122
:1004D0001F0190912001821B930B9BBD8ABD88E870
:1004E00093E1FE013197F1F70197D9F7D8981BBC3A
:1004F0001ABC80ED97E0FE013197F1F70197D9F72B
:10050000AECFAA1BBB1B51E107C0AA1FBB1FA6177A
:10051000B70710F0A61BB70B881F991F5A95A9F7AC
:0E05200080959095BC01CD010895F894FFCF11
:10052E004443204D6F746F7220436F6E74726F6C04
:0A053E000044757479203D20000090
:00000001FF
