:100000000C9446000C9465000C9465000C946500FB
:100010000C9465000C9465000C9465000C946500CC
:100020000C9465000C9465000C9465000C946500BC
:100030000C9465000C9465000C9465000C946500AC
:100040000C9460010C9465000C9465000C946500A0
:100050000C9465000C9465000C9465000C9465008C
:100060000C9465000C9465000C9465000C9465007C
:100070000C9465000C9465000C9465000C9465006C
:100080000C9465000C9465000C94650011241FBE4F
:10009000CFEFD0E1DEBFCDBF11E0A0E0B1E0E4ECF6
:1000A000F6E000E00BBF02C007900D92A833B10745
:1000B000D9F711E0A8E3B1E001C01D92A33CB1075C
:1000C000E1F70E945D020C9460030C940000109212
:1000D0009B0088E180939A0086E080939D001092B7
:1000E000980087E6809399000895982F80919B004F
:1000F00085FFFCCF90939C000895FC0107C0809180
:100100009B0085FFFCCF319690939C0090819923B2
:10011000B1F70895BC9AC498089587B1807E87B9D5
:10012000399A369A349BFECF349A84B195B1909324
:100130003E0180933D012091BD013091BE0140916F
:10014000BB015091BC012C333105C0F480913D01BD
:1001500090913E01F901EE0FFF1FED5BFE4F918381
:100160008083480F591F5093BC014093BB012F5F00
:100170003F4F3093BE012093BD01089580913D0112
:1001800090913E01840F951F2091430130914401CD
:10019000821B930B9093BC018093BB016CE370E0D6
:1001A0000E944C037093400160933F0160913F01B6
:1001B0007091400180E090E022EE34E040E050E0B9
:1001C0000E942D03672F782F892F99277093420162
:1001D00060934101E3E4F1E0828193818193919303
:1001E00081E0E93BF807C1F780913D0190913E0124
:1001F0009183808308950F931F93CF93DF939C0186
:100200008B01109238011092390110923A0110922C
:100210003B0110923C01C0E0D0E0C901B8010E944E
:100220004C03FE01E85CFE4F80832196C901B801B2
:100230000E944C039B016115710579F7DF91CF9105
:100240001F910F9108956AE070E00E94FB0080E02A
:1002500091E00E947D0080913A018A3018F4982F35
:10026000905D02C0982F995C80919B0085FFFCCF28
:1002700090939C00809139018A3018F4982F905DFA
:1002800002C0982F995C80919B0085FFFCCF9093D2
:100290009C00809138018A3018F4982F905D02C03C
:1002A000982F995C80919B0085FFFCCF90939C00D8
:1002B00080919B0085FFFCCF8AE080939C0008958D
:1002C0001F920F920FB60F920BB60F9211240F933D
:1002D0001F932F933F934F935F936F937F938F93CE
:1002E0009F93AF93BF93EF93FF9384E682BF809178
:1002F000C1019091C20101969093C2018093C10106
:10030000019709F50091BF011091C0010F5F1F4FC8
:100310001093C0010093BF011092C2011092C1015D
:100320000E948D000436110571F488B390E189278D
:1003300088BB1092C0011092BF0180914101909141
:1003400042010E942301FF91EF91BF91AF919F91D4
:100350008F917F916F915F914F913F912F911F915D
:100360000F910F900BBE0F900FBE0F901F9018951E
:100370008A3010F4805D0895895C089520EA3FE09A
:1003800004C0F9013197F1F701970097D1F708956B
:1003900035E004C0232F2A95F1F701970097D1F794
:1003A00008951F93162F6AE070E00E94FB0011234E
:1003B00081F1163010F015E002C0153049F480913B
:1003C0003C018A3010F4805D01C0895C0E94840287
:1003D000143048F080913B018A3010F4805D01C0F8
:1003E000895C0E948402133048F080913A018A307F
:1003F00010F4805D01C0895C0E948402113049F0D4
:10040000809139018A3010F4805D01C0895C0E94BE
:100410008402809138018A3010F4805D01C0895CCB
:100420000E9484021F9108956AE070E00E94FB0020
:1004300080913A018A3010F4805D01C0895C0E948D
:100440008402809139018A3010F4805D01C0895C9A
:100450000E9484028AE191E00E94A002809138010A
:100460008A3010F4805D01C0895C0E948402089586
:100470000E94060381E00E94BD0280E060E00E94CD
:10048000F6028CE191E00E94A00281E060E00E940F
:10049000F60288E291E00E94A00287B18F7187B9CD
:1004A00086B1876886B913BE84E682BF81E087BFC4
:1004B000789483B7876083BF0895BC9AC4980E94DC
:1004C000380210929B0088E180939A0086E0809326
:1004D0009D001092980087E68093990080E066E086
:1004E0000E94F60280914101909142010E94140203
:1004F00081E06CE00E94F60280913F019091400102
:1005000064E00E94D101EACF95E3292F2A95F1F703
:10051000292F2A95F1F7292F2A95F1F7292F2A95C6
:10052000F1F79A95F1F7982F907F956095BB9B7F97
:1005300095BB8295807F856085BB8B7F85BB089549
:10054000CF93DF93EC0103C00E948402219688813F
:100550008823D1F7DF91CF910895982F907F9460F1
:1005600095BB9B7F95BB8295807F846085BB8B7F8D
:1005700085BB85E08A95F1F708951F93182F85E3D1
:10058000982F9A95F1F7982F9A95F1F7982F9A95B9
:10059000F1F7982F9A95F1F78A95F1F7812F0E943C
:1005A000AD021150123020F480E49FE10197F1F781
:1005B0001F9108950F931F93CF93DF938B01880FA3
:1005C000880F880F80640E94BD02C0E0D0E0F8016F
:1005D000EC0FFD1F80810E9484022196C830D10556
:1005E000B1F7DF91CF911F910F910895882349F0C2
:1005F000813011F4605C05C0823011F4605F01C08D
:10060000605B862F80680E94BD0208958FEF84BBD7
:1006100080E69AEE0197F1F780E30E94AD0280E256
:100620009EE40197F1F780E30E94AD0280EA9FE02B
:100630000197F1F782E30E94AD0288E20E94BD02B9
:1006400088E00E94BD0281E00E94BD0286E00E9417
:10065000BD028CE00E94BD020895629FD001739F8D
:10066000F001829FE00DF11D649FE00DF11D929F4E
:10067000F00D839FF00D749FF00D659FF00D99278D
:10068000729FB00DE11DF91F639FB00DE11DF91FB1
:10069000BD01CF0111240895AA1BBB1B51E107C066
:1006A000AA1FBB1FA617B70710F0A61BB70B881F02
:1006B000991F5A95A9F780959095BC01CD01089591
:0406C000F894FFCFDC
:1006C400544D505F73656E736F725F6F75707574A0
:1006D4005F6176675F43203D20002E00544D50201B
:1006E4003D20202020204300544D50206176672077
:0806F4003D2020202020000021
:00000001FF
