:100000000C9446000C9448010C9465000C94650017
:100010000C9465000C9465000C9465000C946500CC
:100020000C9465000C9465000C9465000C946500BC
:100030000C9465000C9465000C9465000C946500AC
:100040000C9410010C9465000C9465000C946500F0
:100050000C9465000C9465000C9465000C9465008C
:100060000C9465000C9465000C9465000C9465007C
:100070000C9465000C9465000C9465000C9465006C
:100080000C9465000C9465000C94650011241FBE4F
:10009000CFEFD0E1DEBFCDBF11E0A0E0B1E0E0E006
:1000A000F5E000E00BBF02C007900D92A032B1074F
:1000B000D9F711E0A0E2B1E001C01D92A333B1076E
:1000C000E1F70E9420020C947E020C94000095E35C
:1000D000292F2A95F1F7292F2A95F1F7292F2A950B
:1000E000F1F7292F2A95F1F79A95F1F7982F907F3C
:1000F000956095BB9B7F95BB8295807F856085BB16
:100100008B7F85BB0895CF93DF93EC0103C00E94E2
:100110006700219688818823D1F7DF91CF910895D8
:10012000982F907F946095BB9B7F95BB8295807F35
:10013000846085BB8B7F85BB85E08A95F1F7089548
:100140001F93182F85E3982F9A95F1F7982F9A957A
:10015000F1F7982F9A95F1F7982F9A95F1F78A95DC
:10016000F1F7812F0E9490001150123020F480E4AA
:100170009FE10197F1F71F9108950F931F93CF937C
:10018000DF938B01880F880F880F80640E94A00086
:10019000C0E0D0E0F801EC0FFD1F80810E946700F5
:1001A0002196C830D105B1F7DF91CF911F910F9102
:1001B0000895882349F0813011F4605C05C08230D5
:1001C00011F4605F01C0605B862F80680E94A00010
:1001D00008958FEF84BB80E69AEE0197F1F780E3F4
:1001E0000E94900080E29EE40197F1F780E30E9474
:1001F000900080EA9FE00197F1F782E30E9490006F
:1002000088E20E94A00088E00E94A00081E00E9495
:10021000A00086E00E94A0008CE00E94A00008954B
:100220001F920F920FB60F9211242F933F938F932B
:100230009F9384E682BF80913101909132010196B3
:1002400090933201809331010597C9F410923201E5
:1002500010923101C09A84E190E035E0232F2A9575
:10026000F1F70197D9F7C098809125019091260167
:10027000889718F4C49AC59802C0C498C59A9F91EB
:100280008F913F912F910F900FBE0F901F90189557
:100290001F920F920FB60F9211242F933F935F93EB
:1002A0006F937F938F939F93AF93BF938091290117
:1002B00090912A010097B9F480918800909189006B
:1002C0009093300180932F0181E090E090932A0178
:1002D0008093290180916A00826080936A008091F6
:1002E0006A008E7F3AC00197D1F580918800909185
:1002F000890090932E0180932D0120912F01309140
:100300003001821B930B90932C0180932B0164E7A7
:1003100070E00E946A02709326016093250180912B
:100320002501909126018D57914040F08091270141
:1003300090912801909326018093250180912501B9
:1003400090912601909328018093270110922A0111
:100350001092290180916A00836080936A00BF91A6
:10036000AF919F918F917F916F915F913F912F916D
:100370000F900FBE0F901F9018950F931F93CF9360
:10038000DF939C018B0110922001109221011092A9
:1003900022011092230110922401C0E0D0E0C90193
:1003A000B8010E946A02FE01E05EFE4F8083219642
:1003B000C901B8010E946A029B016115710579F7B4
:1003C000DF91CF911F910F9108958A3010F4805DD5
:1003D0000895895C089520EA3FE004C0F90131974F
:1003E000F1F7019718161906CCF3089535E004C00B
:1003F000232F2A95F1F7019718161906CCF30895C3
:100400006AE070E00E94BD01809122018A3010F400
:10041000805D01C0895C0E946700809121018A3063
:1004200010F4805D01C0895C0E946700809120010A
:100430008A3010F4805D01C0895C0E9467000895D5
:100440000F931F930E94E90080E060E00E94D900B2
:1004500080E091E00E94830081E060E00E94D9008A
:1004600081E191E00E948300B89ABC9ABD9AC0983D
:10047000C498C59A13BE84E682BF87B7816087BFE0
:1004800010928B0082E080938A00889880916A00A5
:10049000836080936A0089B7816089BF7894C09A2D
:1004A00084E190E035E0232F2A95F1F70197D9F701
:1004B000C09883B7876083BFF8940091250110919D
:1004C0002601789481E069E00E94D900C8010E9469
:1004D0000002F2CFAA1BBB1B51E107C0AA1FBB1F22
:1004E000A617B70710F0A61BB70B881F991F5A95C0
:1004F000A9F780959095BC01CD010895F894FFCFA0
:10050000556C747261736F6E696353656E736F724D
:1005100000446973745F31203D20202020636D000A
:00000001FF
