:100000000C9446000C9465000C9465000C946500FB
:100010000C9465000C94B7010C9465000C94650079
:100020000C9465000C9465000C9465000C946500BC
:100030000C9465000C9465000C9465000C946500AC
:100040000C9410010C9465000C9465000C946500F0
:100050000C9465000C9465000C9465000C9465008C
:100060000C9465000C9465000C9465000C9465007C
:100070000C9465000C9465000C9465000C9465006C
:100080000C9465000C9465000C94650011241FBE4F
:10009000CFEFD0E1DEBFCDBF11E0A0E0B1E0E4EDF5
:1000A000F5E000E00BBF02C007900D92A032B1074F
:1000B000D9F711E0A0E2B1E001C01D92A833B10769
:1000C000E1F70E9495020C94E8020C94000095E37D
:1000D000292F2A95F1F7292F2A95F1F7292F2A950B
:1000E000F1F7292F2A95F1F79A95F1F7982F907F3C
:1000F000956095BB9B7F95BB8295807F856085BB16
:100100008B7F85BB0895CF93DF93EC0103C00E94E2
:100110006700219688818823D1F7DF91CF910895D8
:10012000982F907F946095BB9B7F95BB8295807F35
:10013000846085BB8B7F85BB85E08A95F1F7089548
:100140001F93182F85E3982F9A95F1F7982F9A957A
:10015000F1F7982F9A95F1F7982F9A95F1F78A95DC
:10016000F1F7812F0E9490001150123020F480E4AA
:100170009FE10197F1F71F9108950F931F93CF937C
:10018000DF938B01880F880F880F80640E94A00086
:10019000C0E0D0E0F801EC0FFD1F80810E946700F5
:1001A0002196C830D105B1F7DF91CF911F910F9102
:1001B0000895882349F0813011F4605C05C08230D5
:1001C00011F4605F01C0605B862F80680E94A00010
:1001D00008958FEF84BB80E69AEE0197F1F780E3F4
:1001E0000E94900080E29EE40197F1F780E30E9474
:1001F000900080EA9FE00197F1F782E30E9490006F
:1002000088E20E94A00088E00E94A00081E00E9495
:10021000A00086E00E94A0008CE00E94A00008954B
:100220001F920F920FB60F9211242F933F938F932B
:100230009F9384E682BF80913601909137010196A9
:100240009093370180933601059709F087C010928B
:10025000370110923601C09A84E190E035E0232FF7
:100260002A95F1F70197D9F7C098809127019091CD
:100270002801899718F01092330131C0809127012D
:10028000909128014E9730F081E08093330184E013
:1002900090E021C08091270190912801449730F08F
:1002A00081E08093330183E090E015C080912701C5
:1002B000909128010A9730F081E08093330182E029
:1002C00090E009C0809127019091280181E08093FE
:1002D000330181E090E09093350180933401809167
:1002E000340190913501029730F481E090E09093D1
:1002F0003501809334018091340190913501049748
:1003000030F084E090E09093350180933401809147
:1003100033018130E9F4209134013091350180912D
:100320002001909121010196909321018093200159
:100330008217930798F0109221011092200188B340
:1003400090E1892788BB88B390E2892788BB06C0E3
:1003500080913301882311F4C498C59A9F918F919D
:100360003F912F910F900FBE0F901F9018951F92E5
:100370000F920FB60F9211242F933F935F936F93B9
:100380007F938F939F93AF93BF9380912B01909115
:100390002C01892B79F480918800909189009093A9
:1003A00032018093310181E090E090932C018093A1
:1003B0002B0135C080918800909189009093300185
:1003C00080932F012091310130913201821B930BD8
:1003D00090932E0180932D0164E770E00E94D40277
:1003E0007093280160932701809127019091280143
:1003F0008D57914040F08091290190912A0190936E
:1004000028018093270180912701909128019093E2
:100410002A018093290110922C0110922B01BF9187
:10042000AF919F918F917F916F915F913F912F91AC
:100430000F900FBE0F901F9018950F931F93CF939F
:10044000DF939C018B0110922201109223011092E4
:1004500024011092250110922601C0E0D0E0C901CC
:10046000B8010E94D402FE01EE5DFE4F808321960A
:10047000C901B8010E94D4029B016115710579F789
:10048000DF91CF911F910F9108958A3010F4805D14
:100490000895895C089520EA3FE004C0F90131978E
:1004A000F1F7019718161906CCF3089535E004C04A
:1004B000232F2A95F1F7019718161906CCF3089502
:1004C00020912001309121012F5F3F4F3093210176
:1004D000209320012817390710F480E00895109226
:1004E00021011092200181E008956AE070E00E94ED
:1004F0001D02809124018A3010F4805D01C0895C66
:100500000E946700809123018A3010F4805D01C051
:10051000895C0E946700809122018A3010F4805D1E
:1005200001C0895C0E94670008950E94E90080E094
:1005300060E00E94D90080E091E00E94830081E0A9
:1005400060E00E94D90081E191E00E948300B89AA6
:10055000C098BC9AC498BD9AC59A13BE84E682BF5F
:1005600091E097BF10928B0082E080938A009ABF3F
:1005700089B7806189BF7894C09A84E190E035E0C2
:10058000232F2A95F1F70197D9F7C09883B7876091
:1005900083BF81E069E00E94D9008091270190919A
:1005A00028010E947502F5CFAA1BBB1B51E107C0B1
:1005B000AA1FBB1FA617B70710F0A61BB70B881FF3
:1005C000991F5A95A9F780959095BC01CD01089582
:0405D000F894FFCFCD
:1005D400556C747261736F6E696353656E736F7279
:1005E40000446973745F31203D20202020636D0036
:00000001FF
