:100000000C9446000C9465000C9465000C946500FB
:100010000C9465000C944A020C94BB020C942D03C2
:100020000C9465000C9465000C9465000C946500BC
:100030000C9465000C9465000C9465000C946500AC
:100040000C9476010C9465000C9465000C9465008A
:100050000C9465000C9465000C9465000C9465008C
:100060000C9465000C9465000C9465000C9465007C
:100070000C9465000C9465000C940A010C946500C6
:100080000C9465000C9465000C94650011241FBE4F
:10009000CFEFD0E1DEBFCDBF11E0A0E0B1E0EEEEEA
:1000A000FBE000E00BBF02C007900D92A83CB10737
:1000B000D9F712E0A8ECB1E001C01D92A531B1075B
:1000C000E1F70E943A040C94F5050C94000095E3C6
:1000D000292F2A95F1F7292F2A95F1F7292F2A950B
:1000E000F1F7292F2A95F1F79A95F1F7982F907F3C
:1000F000956095BB9B7F95BB8295807F856085BB16
:100100008B7F85BB0895CF93DF93EC0103C00E94E2
:100110006700219688818823D1F7DF91CF910895D8
:10012000982F907F946095BB9B7F95BB8295807F35
:10013000846085BB8B7F85BB85E08A95F1F7089548
:100140001F93182F85E3982F9A95F1F7982F9A957A
:10015000F1F7982F9A95F1F7982F9A95F1F78A95DC
:10016000F1F7812F0E9490001150123020F480E4AA
:100170009FE10197F1F71F9108958295880F880FED
:10018000807C680F862F80680E94A00008958FEF02
:1001900084BB80E69AEE0197F1F780E30E9490001D
:1001A00080E29EE40197F1F780E30E94900080EAEC
:1001B0009FE00197F1F782E30E94900088E20E949D
:1001C000A00088E00E94A00081E00E94A00086E0DC
:1001D0000E94A0008CE00E94A00008950F931F933E
:1001E000CF93DF938B01880F880F880F80640E9464
:1001F000A000C0E0D0E0F801EC0FFD1F80810E945C
:1002000067002196C830D105B1F7DF91CF911F91DA
:100210000F9108951F920F920FB60F920BB60F9287
:1002200011248F939F93EF93FF9380919C00809371
:10023000FC018091FC018E32B9F09091FC0180911B
:100240009B0085FFFCCF90939C0080911302E82FC8
:10025000F0E09091FC01E350FE4F90838F5F80931C
:1002600013021092110214C08091FC018E3281F4AD
:1002700080919B0085FFFCCF8AE080939C00809159
:100280001302809312021092130281E080931102F4
:10029000FF91EF919F918F910F900BBE0F900FBE2A
:1002A0000F901F90189510929B0088E180939A0000
:1002B00086E080939D001092980087E680939900D5
:1002C0000895982F80919B0085FFFCCF90939C0010
:1002D0000895FC0107C080919B0085FFFCCF3196FB
:1002E00090939C0090819923B1F708951F920F92EB
:1002F0000FB60F9211242F933F935F936F937F93C9
:100300008F939F93AF93BF93789484E682BF80913D
:10031000FA019091FB0101969093FB018093FA0101
:10032000059709F0A9C01092FB011092FA01809183
:10033000F5019091F60101969093F6018093F501F5
:100340008091F5019091F601049731F481E090E0FD
:100350009093F6018093F5018091F5019091F6015B
:10036000019769F4C09A84E190E035E0232F2A9543
:10037000F1F70197D9F7C09881E090E025C080910E
:10038000F5019091F601029769F4C19A84E190E039
:1003900035E0232F2A95F1F70197D9F7C19882E02C
:1003A00090E012C08091F5019091F601039781F4DD
:1003B000C29A84E190E035E0232F2A95F1F7019766
:1003C000D9F7C29883E090E09093D0018093CF0159
:1003D0008091E9019091EA01899720F481E080936E
:1003E000F70102C01092F7018091E9019091EA01B2
:1003F0006AE070E00E94E1056F5F7F4F7093F90142
:100400006093F8018091F8019091F901029730F41E
:1004100081E090E09093F9018093F8018091F801D8
:100420009091F901049730F084E090E09093F90105
:100430008093F8018091F7018130C9F42091F8018F
:100440003091F9018091C8019091C9010196909372
:10045000C9018093C8018217930770F01092C901F7
:100460001092C80188B398E0892788BB05C08091A5
:10047000F701882309F4C398BF91AF919F918F91A1
:100480007F916F915F913F912F910F900FBE0F90D1
:100490001F9018951F920F920FB60F9211242F9351
:1004A0003F935F936F937F938F939F93AF93BF938C
:1004B00078942091CF013091D0012130310509F09D
:1004C0004CC08091ED019091EE01892B69F48091EF
:1004D0008800909189009093F4018093F301309308
:1004E000EE012093ED0139C0809188009091890040
:1004F0009093F2018093F1012091F3013091F40186
:10050000821B930B9093F0018093EF0164E770E0FE
:100510000E94E1057093EA016093E9018091E9018D
:100520009091EA018D57914040F08091EB019091BC
:10053000EC019093EA018093E9018091E9019091A7
:10054000EA019093EC018093EB011092EE0110927E
:10055000ED011092D0011092CF01BF91AF919F9108
:100560008F917F916F915F913F912F910F900FBE6F
:100570000F901F9018951F920F920FB60F92112493
:100580002F933F935F936F937F938F939F93AF933B
:10059000BF9378948091CF019091D001029709F098
:1005A0004EC08091E1019091E201892B79F4809114
:1005B0008800909189009093E8018093E70181E0A1
:1005C00090E09093E2018093E10139C0809188002E
:1005D000909189009093E6018093E5012091E701D5
:1005E0003091E801821B930B9093E4018093E30127
:1005F00064E770E00E94E1057093DE016093DD0125
:100600008091DD019091DE018D57914040F0809105
:10061000DF019091E0019093DE018093DD018091F4
:10062000DD019091DE019093E0018093DF01109253
:10063000E2011092E1011092D0011092CF01BF911E
:10064000AF919F918F917F916F915F913F912F918A
:100650000F900FBE0F901F9018951F920F920FB61C
:100660000F9211242F933F935F936F937F938F93F8
:100670009F93AF93BF9378948091CF019091D001D5
:10068000039709F04EC08091D5019091D601892B36
:1006900079F480918800909189009093DC01809397
:1006A000DB0181E090E09093D6018093D50139C0C1
:1006B00080918800909189009093DA018093D9010C
:1006C0002091DB013091DC01821B930B9093D801C8
:1006D0008093D70164E770E00E94E1057093D20136
:1006E0006093D1018091D1019091D2018D579140B9
:1006F00040F08091D3019091D4019093D2018093E6
:10070000D1018091D1019091D2019093D401809335
:10071000D3011092D6011092D5011092D0011092FF
:10072000CF01BF91AF919F918F917F916F915F9119
:100730003F912F910F900FBE0F901F9018950F9320
:100740001F93CF93DF939C018B011092CA011092EB
:10075000CB011092CC011092CD011092CE01C0E0DD
:10076000D0E0C901B8010E94E105FE01E653FE4F49
:1007700080832196C901B8010E94E1059B016115A2
:10078000710579F7DF91CF911F910F9108958A300C
:1007900010F4805D0895895C089520EA3FE004C06C
:1007A000F9013197F1F7019718161906CCF308955E
:1007B00035E004C0232F2A95F1F701971816190682
:1007C000CCF308952091C8013091C9012F5F3F4FAC
:1007D0003093C9012093C8012817390710F480E02D
:1007E00008951092C9011092C80181E008951F93E5
:1007F000162F6AE070E00E949F03112381F11630EA
:1008000010F015E002C0153049F48091CE018A3015
:1008100010F4805D01C0895C0E946700143048F0CC
:100820008091CD018A3010F4805D01C0895C0E9406
:100830006700133048F08091CC018A3010F4805D5D
:1008400001C0895C0E946700113049F08091CB01A2
:100850008A3010F4805D01C0895C0E94670080913D
:10086000CA018A3010F4805D01C0895C0E94670073
:100870001F9108950F931F930E94C70080E060E0CE
:100880000E94BD0080E091E00E94830081E060E072
:100890000E94BD008FE091E00E94830010929B00B7
:1008A00088E180939A0086E080939D0010929800E2
:1008B00087E68093990080919A00806880939A00DF
:1008C000789487B3876087BB88B3887F88BBBB9ADF
:1008D000C398BC9AC49A13BE84E682BF81E087BFE6
:1008E00010928B0082E080938A008AB785618ABF6C
:1008F0008AB7857D8ABF89B7806789BF7894C09A97
:1009000084E190E035E0232F2A95F1F70197D9F79C
:10091000C09881E090E09093D0018093CF019093B4
:10092000F6018093F50183B7876083BF1AE000E189
:1009300080911102813009F029C180911402813027
:10094000A1F4109214020E94A00080E060E00E94D6
:10095000BD0080E091E00E94830081E060E00E94A1
:10096000BD008FE091E00E94830030E040E050E065
:1009700060E070E020E039C0A22FB0E0FD01E3505C
:10098000FE4F9081FD01ED57FE4F8081981709F4CD
:100990003F5FFD01E350FE4F9081FD01E657FE4FA2
:1009A0008081981709F44F5FFD01E350FE4F90815D
:1009B000FD01EE56FE4F8081981709F45F5FFD013F
:1009C000E350FE4F9081FD01E356FE4F8081981762
:1009D00009F46F5FFD01E350FE4F9081AE54BE4FAE
:1009E0008C91981709F47F5F2F5F8091120228176E
:1009F00018F2363011F481E011C0473011F482E072
:100A00000DC05A3011F483E009C0643111F484E060
:100A100005C0743111F08EEF01C085E01092110213
:100A2000813011F4C498B2C0823011F4C49AAEC0BF
:100A3000833021F488B3802788BBA8C0843009F0B4
:100A400042C08091E9019091EA016AE070E00E9461
:100A50009F038EE191E00E9469018091CC018A3070
:100A600018F4982F905D02C0982F995C80919B009C
:100A700085FFFCCF90939C008091CB018A3018F4C5
:100A8000982F905D02C0982F995C80919B0085FF04
:100A9000FCCF90939C008091CA018A3018F4982F63
:100AA000905D02C0982F995C80919B0085FFFCCFE0
:100AB00090939C0085E391E00E94690180919B00E6
:100AC00085FFFCCF44C0853009F044C08091DD0132
:100AD0009091DE016AE070E00E949F0388E391E05C
:100AE0000E9469018091CC018A3018F4982F905DA2
:100AF00002C0982F995C80919B0085FFFCCF90935A
:100B00009C008091CB018A3018F4982F905D02C030
:100B1000982F995C80919B0085FFFCCF90939C005F
:100B20008091CA018A3018F4982F905D02C0982FE6
:100B3000995C80919B0085FFFCCF90939C0085E39E
:100B400091E00E94690180919B0085FFFCCF10938A
:100B50009C001CC08E3FD1F48FE491E00E9469019B
:100B600081E00E94A00080E060E00E94BD008CE671
:100B700091E00E94830081E060E00E94BD0088E770
:100B800091E00E94830081E080931402809114021E
:100B9000882309F0CDCE69E00E94BD008091E90173
:100BA0009091EA0163E00E94F70381E069E00E940E
:100BB000BD008091DD019091DE0163E00E94F703AA
:100BC000B7CEAA1BBB1B51E107C0AA1FBB1FA617AC
:100BD000B70710F0A61BB70B881F991F5A95A9F7E6
:0E0BE00080959095BC01CD010895F894FFCF4B
:100BEE00446973745F31203D20202020636D0044E2
:100BFE006973745F32203D20202020636D006D6587
:100C0E006173757265642064697374616E636520C7
:100C1E0031203D2000636D006D65617375726564F2
:100C2E002064697374616E63652032203D20004339
:100C3E006F6D6D616E64204572726F72212120207E
:100C4E0054727920616761696E2E0A00436D6420CB
:100C5E004572726F72212100547279204167616969
:100C6E006E2E006C6564206F6E006C6564206F667E
:100C7E0066006C656420746F67676C650073656EE3
:100C8E00642064697374616E6365203120646174DD
:100C9E00610073656E642064697374616E636520B0
:080CAE00322064617461000052
:00000001FF
